:020000040001F9
:10B00000803E0020D5B00100EFB00100F1B001009A
:10B010000000000000000000000000000000000030
:10B02000000000000000000000000000F3B001007C
:10B030000000000000000000F5B00100F7B00100C2
:10B040000DB70100F9B00100F9B00100F9B001003D
:10B05000F9B0010000000000F9B40100F9B00100EE
:10B06000D1BA0100E9BA0100F9B00100F9B001005C
:10B07000F9B00100F9B00100F9B00100F9B0010028
:10B08000F9B00100C5B70100F9B00100F9B0010045
:10B0900009BA0100F9B0010011BA0100F9B00100CC
:10B0A000F9B00100F9B0010000000000000000004C
:10B0B0000000000000000000000000000000000090
:10B0C0000348854600F0CAF900480047B50402006D
:10B0D000803E00200321094802680A4302600848B4
:10B0E00002680A4302600748804707480047FEE7B6
:10B0F000FEE7FEE7FEE7FEE7FEE70000240500406E
:10B100005405004031BA0100C1B0010030B50B4612
:10B11000014600202022012409E00D46D5409D4231
:10B1200005D31D469540491B2546954040191546B7
:10B13000521E002DF1DC30BD00487047EC57020074
:10B1400010B5431A934209D28318881803E0401EB1
:10B1500001785B1E1970521EF9D210BD03460B43D5
:10B160009B0703D009E008C9121F08C0042AFAD2BD
:10B1700003E00B780370401C491C521EF9D210BD2D
:10B18000D2B201E00270401C491EFBD2704700227F
:10B19000F6E710B513460A4604461946FFF7F0FFD6
:10B1A000204610BD421C0178401C0029FBD1801AAA
:10B1B000704730B504460020034600E05B1C934214
:10B1C00003D2E05CCD5C401BF8D030BD03460A786A
:10B1D0000270401C491C002AF9D118467047F8B586
:10B1E00002464A40D40F42004B0052085B089A4284
:10B1F00002D20246084611464A0023D0C30D4A0037
:10B20000DDB2120EAD1A202D35DA49020126490AA7
:10B21000F6058A19002C00D0524220214F1B1146FE
:10B22000B9402A411018C20D9A4221D0002C17D0E3
:10B23000012D08DCDA05801AD20F8019D207DBB2A3
:10B2400000F0D3F8F8BDDA05801A012340001B0690
:10B25000C01880185A428018CA0F1043490007E0EE
:10B260004908C2071143DA05801A8019400880187E
:10B2700000F0B3F8F8BD61000122511A001BF7E796
:10B280000122D2075140AAE70122D2075040A6E787
:10B29000024670B54A40D30FDB0740002DD04A006C
:10B2A0002AD0010E140E000212020919400A520A95
:10B2B0008418E50104465443000A120A2E04504340
:10B2C000A4194219200CC543AA18120C0125AD037C
:10B2D000521C521912047F39240400D0521C10430E
:10B2E00001D44000491EC2B20C06C0092018401CFF
:10B2F0004008802A02D003E0002070BD40084000D2
:10B30000002900DA0020184370BD420005D0420039
:10B31000120E52428A4201DB00207047C90508180C
:10B32000704710B500229623114600F05EF810BD5C
:10B33000410040020122400AD205090E80187F29EF
:10B3400001DA00207047962903DC9622511AC84082
:10B350007047963988407047F0B51FB40646002004
:10B3600082B005464024019100901BE001992246DD
:10B370000F46304600F020F8049A059B801A994148
:10B3800010D310461946224600F07AF8361A8F413B
:10B390000197224601200021009F00F071F8381823
:10B3A0004D4100902046641E0028DFDC019B009880
:10B3B0002946324607B0F0BD10B5202A04DB084606
:10B3C000203AD040002110BD0B46D340D04020246D
:10B3D000A21A91400843194610BD002904DA401C06
:10B3E000490001D140084000704770B40024050CAA
:10B3F00005D11024000402D1002921D01124050E0A
:10B4000001D100020834050F01D10001241D850F70
:10B4100001D18000A41C002801DB4000641C00292D
:10B4200008D020252E1B0D46F540A14000D001215B
:10B430002943084301061B1B000ADB1D02D500201F
:10B4400070BC7047DB05181880180029F8DA401C1A
:10B450004900F5D170BC400840007047064C0125FA
:10B46000064E05E0E36807CC2B430C3C98471034AC
:10B47000B442F7D3FFF728FED0580200F05802007C
:10B4800010B5202A04DB0146203A9140002010BD6F
:10B49000914020239C1A0346E3401943904010BD7D
:10B4A00070B58C180578401C6B075B0F01D10378D1
:10B4B000401C2A1106D10278401C03E006780E7069
:10B4C000401C491C5B1EF9D12B0705D40023521EDA
:10B4D0000DD40B70491CFAE70378401CCB1A921C60
:10B4E00003E01D780D70491C5B1C521EF9D5A1426A
:10B4F000D8D3002070BD0000F0B50024FF268BB02B
:10B500000136012527460694304606F09FF90028AB
:10B5100007D054484068284203D0304606F08EF9E0
:10B520002C43361D6D007F1CB6B2042FECD3FF25D3
:10B530007D35284606F08AF9002809D0284606F00D
:10B540007DF96807044306AA0121002006F062F98C
:10B55000454D200714D00127002627420CD0434830
:10B56000B200111808690969C004C00E8903AA58FD
:10B57000890F002A00D090477F00761C042EECD360
:10B58000002C6DDA00200890401E63E0281940303E
:10B590000778B906890E009100214156491C49D00F
:10B5A00009A9009805F0FEF9002843D0B8090190D8
:10B5B000009802F051FE80002F580198002F02D011
:10B5C000032802D00DE0032834D1009808ABC2084C
:10B5D00041079446985C490F01228A401043624615
:10B5E0009854009805210907800040180721090296
:10B5F0004018006806A98003800F0290009805F0AB
:10B60000D1F90028029802D0022802D012E00328C3
:10B6100010D10198032808D1029802281ED00221D7
:10B62000009806F0D9F8761CF6B2002F02D00199E6
:10B630000098B847641C042CA8D3002E10D06A468A
:10B640000121002006F0E6F806990098884207D00C
:10B650000690089800263446099097E70321DFE713
:10B660000BB0F0BD00630040082B002000650040D7
:10B67000FEB505F0B7F81B2001906B2019271A269C
:10B680001C250021009005F0D7F804461321384608
:10B6900005F0D2F8204007460421304605F0CCF8EA
:10B6A00004463C401221019805F0C6F804400021F0
:10B6B000284605F0C1F804400121009805F0BCF8C7
:10B6C000014621400846FEBD8307FF22DB0E9A405B
:10B6D0008907090E994000280BDA0007000F083887
:10B6E000830808489B001818C36993430B43C36140
:10B6F0007047830804489B001B1818689043084350
:10B700001860704700ED00E000E400E0F8B5FF20AD
:10B71000013005F052F9002401250E4E0E4F00288D
:10B7200007D00E4804600120B0607D70002002F058
:10B7300021FEFF20053005F040F9002808D0074819
:10B74000001D04600220B060BD70012002F012FEF6
:10B75000F8BD000000030040F42A00200001004072
:10B7600000B585B0142209496846FFF7E9FC0120BD
:10B77000694648720548064A083801F02DF8002845
:10B7800001D000F0A5FE05B000BD00003C55020050
:10B79000CB34020010B5012002F058FB0028084805
:10B7A0000BD000F0DDFF32220021054800F0BAFE88
:10B7B000002801D000F08CFE10BD00F08DFF10BD00
:10B7C0003455020010B506490020086048608860C2
:10B7D000C860034940390860486009F043FA10BD69
:10B7E00040110140F3B5224D072728780124214953
:10B7F0007F03022681B0002806D0012818D0022835
:10B800001CD00A2829D031E0084600F07DF8044613
:10B81000194800F079F80440384600F075F82040E7
:10B8200007460299019800F03BF804463C4010E0BE
:10B83000084600F069F804460A2016E0384600F091
:10B8400063F807460299019800F02AF804463C4044
:10B8500001D02E700AE0012007E0062000F054F825
:10B860000446142005F0CCF8002028702046FEBDC8
:10B87000B1210020F93F00000336000010B5074C4D
:10B8800042206070062000F03FF8142005F0B8F860
:10B8900000F04AF80021217010BD0000B121002005
:10B8A000F3B50126FF24F53481B00D463746002953
:10B8B0000BD10020FEBD1348012340782A463843AF
:10B8C000019909F027FB060004D12046641EA4B2AA
:10B8D0000028F0D1032D12D300240CE0019802219E
:10B8E0000019009002F074FC0146009880788842AC
:10B8F00005D1E41CE4B2AC42F0D33046FEBD0148B1
:10B900000770D6E7B121002008B5002100916946F3
:10B910004870000A0870034801230222407809F0A9
:10B92000F9FA08BDB12100207CB51248FFF7ECFF01
:10B930001148FFF7E9FF044606216846FFF7B0FF0C
:10B9400020400546684600880CA140BA04046846B9
:10B95000C07800020443684600790443224603206D
:10B9600006F080F90B48844201D000207CBD2846B7
:10B970007CBD00007C36000002E100003A494E46E2
:10B980004F3A64657669636549442069732025648C
:10B990000D0A00008801010310B503480078002853
:10B9A00001D100F0ADF810BD4C33002070B50E464B
:10B9B00018214843134914464518E86A18350028E9
:10B9C00004D001280FD0022805D113E0284600F04A
:10B9D000CDF8A04201D2002411E02246314628468B
:10B9E00000F0FFF80BE0284600F0C0F8A042F4D2C7
:10B9F0000446F2E73146284600F0C3F804462046E4
:10BA000070BD00004C33002010B509F09DF810BD4A
:10BA100010B506484068002805D08047002801D0AE
:10BA200000F056FD10BD04F089F910BD9C210020E6
:10BA300010B504F017FA002805D01F491D484860CA
:10BA4000C8131E4988611E48018CC9B201290BD157
:10BA5000828C120708D1028D1206120F042A03D11C
:10BA6000828D1206120F0AD0012921D1818C09077B
:10BA70001ED1018D0906090F0A2904D007E0114AD9
:10BA800001219160F5E7828D1206120F05D00D2974
:10BA90000ED1808D0006000F0AD10B4801680129E4
:10BAA00004D00A49016001680129FCD1C02141612B
:10BAB00010BD0000DFFF07C000050040006C004023
:10BAC000C00F00F00006004000EC06407593000037
:10BAD00010B504220249034804F070F910BD0000BB
:10BAE000502B00200080004010B50422024903487A
:10BAF00004F064F910BD00005C2B002000900040B1
:10BB000010B5124C02202061606111A0A0611348A1
:10BB1000E0610120400220620020A06260620CA16E
:10BB2000A1642146E0621039E16410212165A0651D
:10BB30006065E0650AA1E01DFFF748FB09A120460A
:10BB4000FFF744FB2020A07110BD00004C33002003
:10BB50005465726D696E616C000000003C3100201C
:10BB60005254540053454747455200000269C1688A
:10BB70008A4203D88068401A801800E0501A401E9C
:10BB80007047F7B5064682B000200090F46817466B
:10BB90003069A04201D9051B02E0B168201A0D1AD4
:10BBA000B0686D1E001BA84200D80546BD4200D3F8
:10BBB0003D4670682A4600190399FFF7C1FA0098BC
:10BBC0007F1B401900900398641940190390B068D6
:10BBD000A04200D10024F460002FD9D1009805B014
:10BBE000F0BDF7B5C668174604468068851B6068D7
:10BBF000BD4206D980190199FFF7A2FAF019E06059
:10BC0000FEBD2A4680190199FFF79AFA01987E1B1A
:10BC1000411932466068FFF793FAE660FEBD000006
:10BC20000FB41CB50A46521E0192009007A9064B9C
:10BC30006A46069800F034F8009A002111701CBC86
:10BC400008BC04B01847000015C1010030B47446A8
:10BC5000641E2578641CAB4200D21D46635D5B0008
:10BC6000E31830BC184702E008C8121F08C1002AB8
:10BC7000FAD170477047002001E001C1121F002A6D
:10BC8000FBD17047202804DA01218140034801429A
:10BC900001D001207047002070470000FC06FFBC67
:10BCA000FFB591B00F460546002606E025280AD0CC
:10BCB000149A139990476D1C761C28780028F5D1AA
:10BCC000304615B0F0BD002400940121F34A0294DF
:10BCD00000E004436D1C2B780846203B984010423E
:10BCE000F7D128782A280ED0022128780246303A47
:10BCF000092A15D8009A0A235A43303A80180C436F
:10BD00006D1C0090F1E701CF0090002805DA0120BA
:10BD100040030443009840420090022004436D1CFD
:10BD200028782E2815D10420044368786D1C2A2811
:10BD30000AD101CF6D1C02900BE002990A225143F7
:10BD4000303940186D1C0290287801463039092995
:10BD5000F3D928786C2810D006DC4C281AD0682833
:10BD60000ED06A2817D104E0742813D07A2812D193
:10BD700010E00120400504430CE00121090501E029
:10BD8000032109050C436978814203D10120000594
:10BD900024186D1C6D1C287803906E281ED00CDCB6
:10BDA000632831D004DC00288AD0582811D1B2E0B1
:10BDB00064287BD069280CD178E073282DD004DC6E
:10BDC0006F2870D0702804D1A7E075286CD078282F
:10BDD0006BD0149A13999047761C62E06002400F72
:10BDE000022807D003280AD0042838680AD0066041
:10BDF0003F1D56E03868F11706604160F8E7386883
:10BE00000680F5E70670F3E7387869460874002085
:10BE1000487404A80390012003E0386803900020D0
:10BE2000C0433F1D61070FD5002101E00199491C66
:10BE3000029A0191914213DA8142F7DB019A039948
:10BE4000895C0029F2D10BE0002101E00199491C35
:10BE500001918142FADB019A0399895C0029F5D1AD
:10BE600001990098139A401A00902146149B00F003
:10BE70003BF901998019461807E003980399007867
:10BE8000491C0391149A139990470198401E019000
:10BE9000401CF2D12146149B139A009800F014F92B
:10BEA00086196D1C09E741E033E034E00A200021E7
:10BEB000049005916002410F022905D001CFC217FD
:10BEC0009446032905D007E0FF1DFF08FF0003CFBC
:10BED00006E000B2C2179446042902D140B2C1174D
:10BEE0008C4600226146944506DA0A46002140420B
:10BEF00091418C462D2102E0210504D52B216A4673
:10BF00001176012103E0E10701D02021F7E701913B
:10BF100054E00A200BE0102009E0102004900021DA
:10BF20000420044308200591029003E0082000212A
:10BF3000059104906002410F022905D001CF002233
:10BF40009446032906D006E0FF1DFF08FF0003CF3B
:10BF50008C4603E080B2042900D1C0B200210191D7
:10BF600021072BD50399702906D0049A1021059B2F
:10BF70004A401A4305D00EE040216A46117601215D
:10BF800008E06146014306D030216A4611760399E4
:10BF9000517602210191049A0821059B4A401A43D7
:10BFA0000CD16146014301D1610707D530216A46B2
:10BFB0001176012101910299491E02910399582994
:10BFC00004D037A103910FA90F910DE039A1F9E732
:10BFD0006146059B049AFFF7BFF9039B8C469B5C67
:10BFE0000F9A521E0F92137061460143F0D10F98C1
:10BFF00007A9081A20300390600704D50120000427
:10C000008443029801E0012002900399884201DDF7
:10C01000401A00E000204118029001980918009889
:10C02000401A0090E00306D42146149B139A00980E
:10C0300000F05AF886190020049008E006A9085C70
:10C04000149A139990470498401C761C0490019907
:10C050008842F3DBE0030CD52146149B139A009829
:10C0600000F042F8861904E0149A302013999047A2
:10C07000761C0299481E02900029F5DC08E00F9812
:10C080000F990078491C0F91149A13999047761CC8
:10C090000399481E03900029F1DCFBE60928010002
:10C0A000303132333435363738396162636465662E
:10C0B00000000000303132333435363738394142F0
:10C0C0004344454600000000F8B5044600251E46DE
:10C0D0001746880404D405E039462020B0476D1C7B
:10C0E000641EF9D52846F8BDFFB50446002581B089
:10C0F0001E46C80301D5302700E02027880404D558
:10C1000005E038460399B0476D1C641EF9D52846F2
:10C1100005B0F0BD4A68002A06D00A68531C0B60BF
:10C1200010704868401E4860704710B500280CD059
:10C1300000290AD002780B789A4206D10622401CC8
:10C14000491CFFF736F8002801D0002010BD01205F
:10C1500010BDF7B584B0064600251788158020303D
:10C160000290407B1446002806D03A4621460598A6
:10C1700001F0F0F9050009D1B078002823D0059826
:10C1800086462088001DB84202D90C2007B0F0BDB9
:10C19000684679DF0028F9D121880320724650547F
:10C1A00020881921401C80B22080115420887146BB
:10C1B000401C80B2208041186846008808F01AFFB1
:10C1C000218840182080F078002817D02188032388
:10C1D0000A46F356C91C0598B942D6D802218154A3
:10C1E00021880122491C89B2218042542188491C9E
:10C1F00089B2218043542088401C20807068002828
:10C2000017D021880023C3560A46C91C0598B94295
:10C21000BBD80221815421880A22491C89B221807D
:10C2200042542188491C89B2218043542088401CF3
:10C230002080308900280AD00094304601970622D9
:10C2400002210830059B08F02FFF05009ED1308A9F
:10C2500000280AD0009430460197072203211030AD
:10C26000059B08F021FF050090D1308B00280AD0F3
:10C27000009430460197152214211830059B08F0D0
:10C2800013FF050082D1306A002806D03B462246C3
:10C29000059902F0D7F80500D8D1706A002806D0B9
:10C2A0003B462246059904F069FA0500CED1029872
:10C2B000007B002807D03B4622463046059907F010
:10C2C000D1FF0500C2D13078002807D03B46224676
:10C2D0003046059904F0CEFA0500B7D1284655E757
:10C2E000174A0021535C002B01D0012203E0491CB6
:10C2F0000629F7D300221349012806D002280BD0C3
:10C30000032810D0042818D112E04878002803D060
:10C31000002A01D0012070478878002803D0002A25
:10C3200001D002207047C878002801D00320704750
:10C330000879002801D004207047002070470000D1
:10C340003D200020AC24002010B501220221002055
:10C3500001F0A6FD002801D0072812D107220221F2
:10C36000012001F09DFD002801D0072809D10021FE
:10C370000A22084601F094FD002801D0072800D1C8
:10C38000002010BD10B5032000F062FE002801D08F
:10C3900000F09EF810BDF0B50F468DB00021164696
:10C3A0006D460F24621A825C6A54491C1029F9D325
:10C3B00028460D211030FEF7EAFE0020221A395CD3
:10C3C0005219401C11740328F8D368464DDF002031
:10C3D000211A4919203109783154401C0328F7D318
:10C3E0000DB0F0BD10B5022001F00CFC10BD000036
:10C3F00070B50024064D06E06968E000085C012184
:10C4000004F09AFD641C28788442F5D3002070BDA6
:10C4100020210020F8B515460C460646052A01D213
:10C420000720F8BD04F060FE002803D104F02EFEC2
:10C430000028F6D1104900204E600C70C8608D6055
:10C4400008610E4D0DE0E000696880190091817867
:10C450006A46517000780A4A694604F0B9FD00281E
:10C46000DFD12046641EE4B20028ECD1054A002149
:10C47000024800F08FFAF8BD202100201C5602006F
:10C48000E5F401003DE6010009A1012005F0C4FB2F
:10C4900005F00AFB05F00EFB0028FBD100BEBFF340
:10C4A0004F8F0A490848C860BFF34F8F00BFFDE7B0
:10C4B0004150505F4552524F523A4552524F523AB4
:10C4C000466174616C0D0A000400FA0500ED00E09D
:10C4D0000EB50021029000916A4601910148FFF7D4
:10C4E000D3FF0EBD0140000070B5054640680B4EFD
:10C4F0000179715C0124FF290DD0FE290CD005F0D3
:10C5000035F801466868064B007982009A589142D6
:10C5100002D1FF2131540024204670BD8C2100201F
:10C520000C2D002070B5044600680D46008B642178
:10C5300080B25043FEF7EAFD82B22946204600F061
:10C5400001F870BDF8B50D460446174600680C2189
:10C550002E4623224E43125C3118022A01D00820B5
:10C56000F8BD4968B94206D1C16900293ED060686A
:10C57000007988473AE02046FFF7B6FF002801D04F
:10C580001120F8BD61681A4A0979FE2050542368C9
:10C590003A469E19776820462946002F02D09E69A8
:10C5A000B7420AD3002A02D09B69934202D806F010
:10C5B000BDFF0BE006F0F4FF08E0002A01D0964230
:10C5C00002D807F077F801E007F0FAF82068C069B0
:10C5D00000280BD06168064A097902204900D21C64
:10C5E000891848550221606804F0F6FF0020F8BD64
:10C5F0008C210020FFB581B006460768029D0C2003
:10C6000045432320C05DEC19002802D0082005B066
:10C61000F0BD002060600498A0722C480068009073
:10C62000284631680A30085C002808D00020694696
:10C630004870039804F060FD002816D101E0012045
:10C64000F5E703987851012703983D468540049902
:10C650001F48002901D0C56000E0856000256019F1
:10C66000083004F0FFFD002801D00420CFE76D1C46
:10C67000EDB2022DF3D3207A04F048FE607A04F084
:10C6800045FE206804F084FD05467068029904F0B8
:10C6900093FF237A01462A46184604F017FE2068C5
:10C6A00004F076FD05460221706804F085FF01461E
:10C6B000607A2A4604F00AFEE7727168054A097931
:10C6C000002049008A1802995054A0E73856020009
:10C6D000000500508F210020F8B506460768406825
:10C6E00004F08CFF0221706804F06DFF00243819FB
:10C6F0002030007804F00AFE641CE4B2022CF6D369
:10C70000002420460C214843C519E97A002912D09B
:10C7100031680A30085C00281AD029780120884046
:10C720000E49C860286804F03DFD287A04F0EEFD4B
:10C73000687A04F0EBFD641CE4B2022CE1D370686B
:10C740000021006805F0BEFD01202037F870F8BD1B
:10C7500028780121814001488160E3E7000500500D
:10C76000F8B50768054600246A68204612790C214E
:10C7700048435300174AC61900219A181155F17AF7
:10C7800000290DD029680A30085C002820D000213B
:10C79000306804F02FFD306804F014FD0020706054
:10C7A000641C022CE0D369680A4AFF200979D21E72
:10C7B000505468680121006805F084FD686804F041
:10C7C000E2FE686804F026FF02202037F870F8BD0A
:10C7D0000121DDE78F210020F7B588B00E00054666
:10C7E00009D02C68204620300690C078002804D05C
:10C7F00008200BB0F0BD0B20FBE704F0ABFE0028D7
:10C8000003D0852801D00420F3E704F06DFC002854
:10C8100005D104F03BFC002801D00320E9E706988D
:10C82000FF2101700698417006988170002007462C
:10C830000C2141430B19DF72FF221A725A72002237
:10C84000D243401CC0B262500228F1D320462230AD
:10C8500004F00CFE002806D10027E019203004F077
:10C8600001FD002803D0284606F0E5FDCBE77F1C3C
:10C87000FFB2022FF1D30027B8003258501C12D05B
:10C88000F019037A39462846FFF7B4FE04900028D1
:10C8900004D0284606F0CFFD0498AAE700223946C6
:10C8A0002846FFF74FFE7F1CFFB2022FE4D3002083
:10C8B0000922244B316901E04908401C994201D901
:10C8C0009042F9D3204A51689268029201916946D8
:10C8D000087168681D4A0079029001A9686804F02F
:10C8E000BFFE070004D0284606F0A5FD384680E7C5
:10C8F00068680522006812028018316900690E011B
:10C90000C640A661686804F03EFE01270097042334
:10C9100032460221686804F08BFE0221686804F048
:10C9200052FE0A98E061686809490079094A800066
:10C930000D506968FF20097950540698C77000208F
:10C9400057E70000FF0F000038560200D534020000
:10C95000182D00208C21002010B50D4C03E0401C48
:10C9600000E0002020702078617881420FD021788B
:10C970006088E26848438018A368CA00D1189A58B2
:10C98000898890472078A1888842EADAE7E710BDD5
:10C990007C210020094B5B68002B07D0002A07D0C0
:10C9A000002805D00068037C002B03D008207047C6
:10C9B00007207047417442610020704744210020E5
:10C9C000FFB507469007002581B01E461446002893
:10C9D00025D1002C23D007F069F93046114EF060C4
:10C9E0003046103005704570029981704460756062
:10C9F000357001240C48757024050460032114204F
:10CA0000FEF762FE09480460094CA760032111206B
:10CA1000FEF75AFE6068B060002005B0F0BD072048
:10CA2000FBE700003421002080E200E000E100E0AC
:10CA300000150140FEB51F4B5B68002B30D000286D
:10CA40002ED0052901D20720FEBD4369002B27D037
:10CA5000437C012B26D0002702910446002569461D
:10CA600016460D70684600F03DF801A808F006FB78
:10CA7000002819D0012101700F4944604968816084
:10CA8000029907614661C16068460A4900794870A9
:10CA90006846007800F044F808F098F82846FEBD93
:10CAA0000820FEBD0F46D7E768460425007800F051
:10CAB00037F8F3E7442100200015014010B508497C
:10CAC000496800290AD0002808D04169002905D00A
:10CAD00000210174022108F0A1F810BD082010BD4A
:10CAE0004421002030B5EFF3108172B6094A546832
:10CAF0000123002C04D00370002900D162B630BDA0
:10CB00005360054B1D68054C254015601C600022D4
:10CB10000270F1E75821002080E100E0FC06FFBC34
:10CB200008494A68002A0CD000280AD1EFF3108087
:10CB300072B60A68044B1A6000224A60002800D1CD
:10CB400062B670475821002000E100E0800B01D060
:10CB50000020704701207047F0B504468BB0008874
:10CB600000F094FC0590208803F056F80646A06873
:10CB70000090657A684605741E4F20880022397837
:10CB800000F0D4FC0598002831D06079400710D51A
:10CB90000721304605F074FD002813D008226946AD
:10CBA0000A7422884A828E82069004A801F042FE0E
:10CBB00008E02088B97800F0A7FC002802D03046B1
:10CBC00003F014F80321684601712188C18060795F
:10CBD0004007C10F68460172A0794007C10F68463F
:10CBE000417201788172C57201A801F023FE0BB079
:10CBF000F0BD0000B0200020F0B50546007D002407
:10CC000093B00E4600280DD0012001466846103131
:10CC100003940173717B4173817BF9200140684665
:10CC2000891C81731C2104A8FEF7B1FA6946087CAF
:10CC300002210843694608742A7DEF21002A02D0A8
:10CC40001022104300E008406A46107405940794CF
:10CC50000894287D002800D003A8099001270A9491
:10CC600010469771304A82800094B27B0270F27B4A
:10CC700042708078F9221040F722801C1040EF218A
:10CC800008404108490068468170317B01721421D7
:10CC90000BA8FEF77CFA01A80B9068460C908786DB
:10CCA000C486078702A80F90A888AB1D0BAA04A909
:10CCB000A2DF002835D1B068002830D068468771DF
:10CCC0001A4981800094317C017000200146684639
:10CCD00041708078F9210840F721801C0840EF213D
:10CCE0000840410849006846817011A8B16800F009
:10CCF000F0FE064614210BA8FEF749FA01A80B9096
:10CD000068460C908686C486068711A80F902A462E
:10CD1000E8880E320BA9A3DF002802D100E0EC81E5
:10CD2000002013B0F0BD0000192A000008290000FF
:10CD300010B500F017F80146074800F00DFA00287A
:10CD400009D0082807D00549884204D00449884200
:10CD500001D0FFF7BDFB10BD8C2300200430000084
:10CD60000134000010B502F0CFFCFEF7DAFA092119
:10CD7000C943FEF7CAFA1049FEF78AFA0F49104C68
:10CD8000884201DB64200DE00E49884201DC01206D
:10CD900008E06168FEF77CFAA168FEF771FAFEF719
:10CDA000C7FAC0B2217862788B1A834202DC8918F4
:10CDB000814200D2207010BD0000614500803B45DB
:10CDC000FC1F002000800945F0B50C4693B01F21E0
:10CDD0006A461180072600279180002809D0C17873
:10CDE00049070DD502A9FFF7B4F9002809D102AD12
:10CDF00001E000251780002C0ED0E078002802D03A
:10CE0000304613B0F0BD01AA0AA92046FFF7A1F9E8
:10CE10000028F6D10AAA02E0684600228780684608
:10CE20008088C3B268460088C1B2284672DFE8E74E
:10CE3000FFB581B01E460A9F1346040047D0002B61
:10CE400045D0504D012028700020E870202219465E
:10CE50004D48FEF775F900206F61C0432E612881AF
:10CE6000284607211830FEF792F947483C21203028
:10CE7000FEF78DF94448217820300170A178817047
:10CE8000E178C170617841703F4A656923695563F3
:10CE9000114613632031E368A268CB608A603A4987
:10CEA000E369A269CB638A63616A00291AD00146EB
:10CEB0003C310246483241628A60636A1B880B80BB
:10CEC000616A436A898899800021436A07E00E20DD
:10CED00005B0F0BD656AAD686D5C5554491C9D8810
:10CEE0008D42F7D8A16A00291CD0274A94321146F6
:10CEF0000C398A608162A36A9B888B80A16A836AED
:10CF0000098819800021836A04E0A56AAD686D5C18
:10CF10005554491C9D888D42F7D82C210A5D1A4929
:10CF200040310A73216A002909D016490A31016289
:10CF3000226A52884A80216A026A098811806168DF
:10CF4000002900D04160104A0E490020B332203140
:10CF5000C3001B1A85009B180C68401C63510828ED
:10CF6000F6DB094A0020EB32030185009B188C6830
:10CF7000401C63510828F7DB034802992030FFF773
:10CF800023FFA5E724200020AC24002010B5018851
:10CF9000134C102915D0112919D01B2910D1007A52
:10CFA00000280DD1E0780521401CFEF7AFF80846B7
:10CFB00000F04EF8002803D06169002900D08847AE
:10CFC00010BD817D0129FBD18088208110BD002109
:10CFD0006171808821898842F8D10120E8E700004A
:10CFE0002420002010B5022801D003280ED1084CBF
:10CFF000607800280AD000206070E07800F028F8FF
:10D00000002803D06169002900D0884710BD0000C6
:10D010002420002010B574DF0B4C012060710B49F7
:10D020000620C87000210948FFF7CEFE002809D16C
:10D03000E07800F00DF8002803D06169002900D0E5
:10D040008847002010BD000024200020CC240020B0
:10D05000F1B53F4C88B0207800280AD00898E070DD
:10D0600006A801F045FF06980125002804D0657048
:10D070006AE0082009B0F0BD3548002707211830C4
:10D08000FEF785F8334E7078002802D0E07801284A
:10D0900007D0B07800280CD0E078012801D0022811
:10D0A00007D12169002903D025710820884700E0B5
:10D0B00027710898FFF714F9E0702169002909D059
:10D0C000032801D0042805D13078002802D06079E7
:10D0D000002811D0A77118216846FEF758F8684655
:10D0E00007700772E1781A480B001830FEF7AEFDA2
:10D0F000052E080F191D2000A57107208847EAE7B3
:10D10000A5700190684605704782078213E00221EE
:10D11000A170019068460570B18941823189018210
:10D1200009E0684607F088F902E0684607F0B0F9C0
:10D13000E078002803D0684673DF00289AD121697F
:10D14000002901D0A0788847002093E7A770F6E770
:10D1500024200020AC24002073B586B004002FD01A
:10D160006A46217C127F0020914227D000250126AB
:10D17000684600950680458007A80190E188608A8E
:10D180006A46A4DF002819D16846007F2074608AAF
:10D190000D49884216D0207D002813D002950395B2
:10D1A00004950595E18868460181867241888181F0
:10D1B000049001980590608A02A9A6DF08B070BDAE
:10D1C0000E20FBE70820F9E7FFFF000038B50D4609
:10D1D00004001AD0002D18D0286820600020C04319
:10D1E000608228792075FF202074012168468170B3
:10D1F00007490180221D69460120A0DF002803D1D4
:10D2000029462046FFF7F8FC38BD0E2038BD000047
:10D210000F18000038B5002824D0002922D00A8831
:10D22000102A1AD0112A1AD0502A1BD10446007D88
:10D23000002817D0C8886289891D904212D1488978
:10D2400002280FD1206800280CD008460C3000F0CE
:10D2500039FC002807D0002006E0898801E0002181
:10D26000C943418238BD01206946087022682046C2
:10D27000904738BD70B5054601461C220E48FDF7A3
:10D280005FFF0E4C002626702968002906D0082270
:10D29000201DFDF755FF201D7ADF02E00748001D25
:10D2A0007BDF002807D1401E60806670044A0021A1
:10D2B0000448FFF76FFB70BD782600205420002043
:10D2C0000150020084550200F8B5214C0146028845
:10D2D00000261E48E589102A13D01E4F112A1FD0A0
:10D2E000122A2BD0502A1AD1881DC988A94216D1DA
:10D2F0004189022913D10C3000F0E4FB00280CD145
:10D3000012E08A8804464280104808220C30183106
:10D31000FDF716FF6670002D01D101F0DBF8F8BDB6
:10D320000021C943418046703868FFF7C7FB0028D9
:10D33000F5D0A1690029F2D08847F8BD034808223A
:10D340000C300831FDF7FCFEE7E700005420002018
:10D35000782600208455020010B503490A7D091D76
:10D3600006F0A9FD10BD000094260020034B10B567
:10D370000246D97D181D06F08BFD10BD94260020B5
:10D38000034B10B50246197E181D06F081FD10BD35
:10D3900094260020F0B5044602883A488DB0014634
:10D3A00015310191102A09D0112A50D01A2A4AD1D8
:10D3B000217A090901294ED901234DE0027D417DE1
:10D3C00005468A43011D07A806F075FD142207A92A
:10D3D00002A8FDF7B5FE00262A483746143008900B
:10D3E0000AE0710002A8081883881D220097281DF2
:10D3F000089906F00DFD761C0298B042F1D8287D00
:10D40000A688C043C0B206F027FD1F49884217D046
:10D4100040004019868001233246281D019906F0FC
:10D420006DFD01233246281D089906F067FDA07D99
:10D4300002280AD000231349A2881631281D1DE0B6
:10D440000420FFF745F80DB0F0BD0123F3E70023FA
:10D45000A288001D12E000230A490546A288173160
:10D46000001D06F04BFD207A0009022801D9012396
:10D4700000E000230349A2881831281D06F03EFD74
:10D48000E1E7000094260020FFFF000070B50B4E7E
:10D4900005460024317D2A46301D06F0F9FC00289F
:10D4A00009D0B17D2A46301D06F0F2FC002801D0DB
:10D4B000022400E00124204670BD000094260020D4
:10D4C00010B50024204607F0CDFD002805D0641CCF
:10D4D000E4B2182CF6D3182010BD044801220168CC
:10D4E000A24011430160204610BD00009426002098
:10D4F00010B5044607F0B6FD002802D00148001917
:10D50000407E10BD9426002070B505460C460846A6
:10D5100007F0A8FD002806D003482A460119497ED5
:10D52000001D06F0B5FC70BD9426002070B50646BF
:10D5300015460C46084607F095FD002807D004481C
:10D540002B4601193246001D193106F0D7FC70BD7B
:10D55000942600207CB5054608880C460930904288
:10D5600001D90C207CBD684671DF0028FAD12188E2
:10D570000820685420881B21401C80B22080295438
:10D58000208800A9401C80B2208040190622013169
:10D59000FDF7D6FD20886946801D80B2208009787D
:10D5A000002900D0012129542088401C208000201F
:10D5B0007CBD000010B50878002809D0012805D0EE
:10D5C000022801D005A104E00EA102E019A100E0AB
:10D5D00024A1032004F020FB10BD00004150503A6C
:10D5E000494E464F3A556E6B6E6F776E2065766585
:10D5F0006E742066726F6D20626C655F6466750D77
:10D600000A0000004150503A494E464F3A496E6474
:10D6100069636174696F6E20666F7220424C455F6A
:10D620004446552069732064697361626C65640DBA
:10D630000A0000004150503A494E464F3A496E6444
:10D6400069636174696F6E20666F7220424C455F3A
:10D6500044465520697320656E61626C65640D0AED
:10D66000000000004150503A494E464F3A4465761A
:10D6700069636520697320656E746572696E6720E1
:10D68000626F6F746C6F61646572206D6F64652189
:10D690000D0A000030B51B4B0D4604000FCB85B0C2
:10D6A00003936B4607C32BD0002D29D01648214683
:10D6B00004600020C043A0802868206100202075FD
:10D6C000A073684663DF002818D12178684681740A
:10D6D00001210182A21C04A90120A0DF00280DD194
:10D6E0002946204606F004FB002807D1012003F05C
:10D6F00035FA002802D103F08DFA002005B030BDC4
:10D700000E20FBE7085602001421002038B500283F
:10D7100020D000291ED00A88102A1CD0112A1DD022
:10D72000502A2ED0512A15D18A8883889A4211D145
:10D730008A79891D022A0DD14A88C3889A4209D163
:10D740000A7A042A06D0062A04D0052A02D0891CA7
:10D7500004F0F8FB38BD8988818038BD82888988CB
:10D760008A42FAD10021C9438180007D0028F4D08B
:10D77000BFF34F8F11491048C860BFF34F8F00BFF0
:10D78000FDE70446C8886289891D9042E5D1488931
:10D790000228E2D108460C3000F094F9A073226907
:10D7A000002ADAD0002801D0012000E002206946DA
:10D7B00008702046904738BD0400FA0500ED00E0EF
:10D7C0007FB504460121684681714A4981804A4AF1
:10D7D00001A90120A0DF00287ED1228825463C3502
:10D7E000002A09D044482B46801C009043486168B9
:10D7F00000F03AFD00287BD12289002A0AD03E4859
:10D800002B460A3000903D48E168401F00F02CFD97
:10D8100000286DD1228A002A0AD037482B461230C0
:10D82000009036486169001F00F01EFD00285FD19E
:10D83000228B002A0AD030482B461A3000902F48FD
:10D84000E169801E00F010FD002851D1228C002AD1
:10D850000AD029482B46223000902848616AC01E11
:10D8600000F002FD002843D1228D002A0AD0224870
:10D870002B462A3000902148E16A401E00F0F4FC5B
:10D88000002835D1216B00290ED002A807F034F909
:10D8900019482B46323000901848082202A9801FF0
:10D8A00000F0E2FC002823D1606B00280BD0124965
:10D8B0002B463A310091027901681048401C00F073
:10D8C000D3FC002814D1A16B002910D002A805F0C8
:10D8D0008BFD0948423000E00AE0009007482B46E3
:10D8E000072202A9273000F0BFFC002800D1002049
:10D8F00004B070BD0A180000CA200020292A0000C8
:10D9000010B50446FFF746FD204605F0C9FB214649
:10D910000F4800F099F80E4821461838FFF77AFCB6
:10D920002046FFF7D1FC204600F0F8F9204604F02D
:10D9300083FA2046FFF72AFB054821466030FFF7AF
:10D94000E5FE03482146503003F036F810BD0000D4
:10D95000A4230020F0B517460446ADB0008C214A40
:10D96000329D1E4690423BD005AA204601F0EAFFB8
:10D97000002205A905E0BB5C0B54401C521C80B280
:10D9800092B2B242F7D3401C82B2FF238B54521C96
:10D99000002092B28854521C92B28854521C92B207
:10D9A0008D54521C2B0A92B28B54521C95B26A466B
:10D9B00015800190029003900490238993800123A5
:10D9C0009371108104910392208C01A9A6DF002895
:10D9D00004D169460988A94200D00C202DB0F0BDC1
:10D9E0000820FBE7FFFF000038B504460868206008
:10D9F000087960710020C0430D4620840021222058
:10DA000001552046403081811421817301216846EF
:10DA100081700C490180A21D69460120A0DF002809
:10DA20000FD12946204601F035FF002809D1A8680A
:10DA3000002805D02946204600F08AF8002800D1A9
:10DA4000002038BD0D18000038B50246088810289F
:10DA500016D0112816D0502817D1881DC98893894F
:10DA6000994212D14189144602290ED12168002918
:10DA70000BD00C3000F026F8002807D0002006E07C
:10DA8000888801E00020C043108438BD0120694629
:10DA9000087022682046904738BD028C0B889A4255
:10DAA00003D189784030C91E81737047203081705E
:10DAB000704770B504460D460846FDF773FB20809D
:10DAC000656070BD4178027808021043C007C00F3E
:10DAD00070470A7802704978417002207047000050
:10DAE00000B5174887B0C06805900023D0221549BB
:10DAF00005A806F0BDFF002801D0FEF7E9FC6A4644
:10DB00000121002006F09CFF002801D0FEF7E0FC78
:10DB1000684606F043FF002801D0FEF7D9FC0A480A
:10DB200006F032FF002801D0FEF7D2FC074806F0CD
:10DB3000D1FF002801D0FEF7CBFC07B000BD0000EC
:10DB400024550200BC22002001D90100E94A02004C
:10DB5000F0B58FB00D4606461C216846FDF717FB51
:10DB60006846017802200143684601700024019450
:10DB7000039404940594012708A806948770154916
:10DB8000684601840794E97B0177297C4177807F8F
:10DB9000F9210840F721801C0840EF210840410886
:10DBA000490068468177142109A8FDF7F0FA08A812
:10DBB000099007A80A9068468785C4850786A868E3
:10DBC0000D903346F088103309AA6946A2DF0FB0E2
:10DBD000F0BD0000382A00000149085C70470000D1
:10DBE000545502000549095C05480069C840C00752
:10DBF000C00F00D001200121484070475455020059
:10DC00000005005005490B5C05494A680120984011
:10DC1000034693438B601040C86070475055020024
:10DC20000005005010B50349085C012103F0E6FD32
:10DC300010BD00005055020010B50349085C0021DA
:10DC400003F0DCFD10BD0000505502000549095CE1
:10DC500005484068C840C007C00F00D0012001211E
:10DC60004840704750550200000500507CB5002424
:10DC7000074E2546305D012200950023114601958F
:10DC800003F068FD641C042CF4D300F003F87CBDA1
:10DC90005055020010B500242046FFF7C3FF641C56
:10DCA000042CF9D310BD10B500242046FFF7C4FFA3
:10DCB000641C042CF9D310BD0246002010B5C043EB
:10DCC000054B00215C5C944201D1084610BD491C03
:10DCD0000429F7D310BD00005455020070B50E4E54
:10DCE00000250C46306000290DD0012000F0AEF870
:10DCF000002801D0022005E0002000F0A7F800284D
:10DD000000D00B2020707068002802D1FEF71CFBA9
:10DD10000546284670BD00001C20002010B51C4C94
:10DD20000188606810290DD011290AD1401E606059
:10DD300007D1FEF709FB002803D02168002900D095
:10DD4000884710BD00281ED100210122084600F09E
:10DD5000A7F8002801D0072811D1072202210120AD
:10DD600000F09EF8002801D0072808D104220221E3
:10DD7000002000F095F8002805D0072803D021687E
:10DD8000002900D088476068401C606010BD00001A
:10DD90001C20002010B5002000F0C0F9002801D0A0
:10DDA000062807D1012000F0B9F9002801D0062883
:10DDB00000D1002010BD0000F3B581B00D460198E0
:10DDC000FFF77AFF0446042813D21D481D4F1E4E4C
:10DDD000002D27D0012D0DD0022D0AD16000201872
:10DDE000C0194578002D04D0F168002901D02846DB
:10DDF0008847FEBD610061187D5CCF1979780029E4
:10DE00000BD071680A2251430F4A8068921CFEF7BA
:10DE100011FE002801D10198B0700B48B97810307C
:10DE20000155DFE78068FEF749FE07486100611889
:10DE30001030C919005D8D78A842D3D0FEBD000016
:10DE400058550200802400200820002010B5FFF75C
:10DE5000C9FE10BD014610B50F48042940880AD0FC
:10DE6000072910D00A2905D1FF20F53002F0AEFDB8
:10DE700006F038FB10BD132176DF09E00028F9D049
:10DE8000FEF726FB10BD05498842FBD1FFF7C2F81B
:10DE90000828F3D110BD0000E81F0020FFFF00009C
:10DEA00070B50023042811D2440004190D4D012A35
:10DEB00002D101290DD0002246008019094E801997
:10DEC00000290CD0012906D0022906D007231846C4
:10DED00070BD0E30C2B22A55F9E74270F7E7827082
:10DEE000F5E700008024002010B5054A0146127AAB
:10DEF0000020D20702D0084600F050F810BD000004
:10DF000008200020F8B506461F4800248660C2603D
:10DF100041600F46B00720D5002501221146284652
:10DF2000FFF7BEFF6D1C0446042D02D2002CF4D076
:10DF300013E0002C11D17A0804211448FEF76AFA84
:10DF400004000AD1FEF754FA040006D10F48104A23
:10DF50000021001FFEF71EFD0446F00701D0FFF769
:10DF600085FE002C0ED109480A4A00210C38FEF724
:10DF700011FD040006D10548074A01210838FEF7C3
:10DF800009FD04462046F8BD082000206455020023
:10DF9000C5E10100DDFE0100E5C30100F8B55D4CFF
:10DFA000054660780026002803D000206070FFF747
:10DFB00071FE0120584F2B00FDF748FE18970D0DFC
:10DFC0002E3D4A5F64686F686FA977777777779798
:10DFD0009A9DA0A9A9950020FFF738FE00280AD035
:10DFE0000020FFF71FFE022D02D1E120C0000BE050
:10DFF0007D20400108E00020FFF71EFE022D01D128
:10E00000C82001E0FF20913025706421FDF77EF8E3
:10E010006168414300222BE00020FFF717FE002833
:10E0200005D00020FFF7FEFD19204001ECE700209D
:10E03000FFF702FEE4E70020FFF708FE002803D008
:10E040000020FFF7EFFDD3E70020FFF7F5FDD9E74C
:10E050000020FFF7FBFD002803D00020FFF7E2FDC2
:10E0600002E00020FFF7E8FD257060684100002213
:10E070003868FEF7DFFC064635E00020FFF7C2FDFA
:10E08000257007E000203FE025702CE06070012043
:10E09000FFF7B8FD00226168EAE760700120FFF732
:10E0A000B1FD606881004118E1E77868FEF706FD80
:10E0B00006461120401B01D0002E03D00220FFF79E
:10E0C000B1FD10E001280BD9C82148436421FDF7B8
:10E0D0001DF86168002241437868FEF7ABFC0646F4
:10E0E0000220FFF7A9FD3046F8BDFFF7D3FDCBE7CF
:10E0F000FFF7D0FDC6E7FFF7CDFD04E0FFF7CAFD4F
:10E100000020FFF799FD0120FFF796FDBCE7FFF720
:10E11000CAFDB9E7082000205855020010B5FFF7E6
:10E120005BFD032103F047FB002010BD002901DA4D
:10E1300000207047026851180160012070470000FC
:10E14000F8B50D46461C0020694608700124684653
:10E15000FEF7C8FC134A106828601168506893687D
:10E16000081A1D1A701C6D1CA84212D9002D0ED061
:10E170000D480E4C0088246880051940800DA402CB
:10E18000890020438918C8601068401C1060002472
:10E1900001E08819106068460078FEF7C1FC20464F
:10E1A000F8BD0000242D00204456020098210020D4
:10E1B000034803C8814201D1012070470020704705
:10E1C000242D002010B500780221FFF7F5FD10BDC9
:10E1D00010B50246FF20064B03E014784440185D5A
:10E1E000521C0C46491EC9B2002CF6D110BD0000CD
:10E1F000685602000022D243830004490428CA5012
:10E2000002D308182030027770470000082B002046
:10E21000F0B50025ED43002A02D00023042601E0DA
:10E22000042308260B4C04E09F00E7597F1C04D010
:10E230005B1CB342F8D32846F0BD26185DB22036E9
:10E2400035709E00A151002AF5D1E11820310877E0
:10E25000F1E70000082B0020024909182020085689
:10E2600070470000082B0020FFB58FB01E461546F2
:10E270000F0002D10020FEF72BF9002D02D1002063
:10E28000FEF726F91C216846FCF781FF68460178F5
:10E290000220014368460170002401940394049411
:10E2A0000594012108A80694817068460F9901849D
:10E2B00007943178017771784177807FF9210840A0
:10E2C000F721801C0840EF210840410849006846BA
:10E2D0008177142109A8FCF75AFF08A8099007A81C
:10E2E0000A9068468585C485058604480D9709AA65
:10E2F00069460088189BA2DF13B0F0BDCA20002039
:10E30000002807D00449814204D80449814201D938
:10E310000120704700207047C4210020E421002024
:10E32000044A0168914201D0083101E001493839BD
:10E3300001607047642C002070B50D4D04460A46FC
:10E340002846AC4208D1FF2401342146104604F08F
:10E3500065FEA0420AD070BDFF2CFCD821461046B5
:10E3600004F04EFE002801D0204670BD284670BD46
:10E37000FFFF000070B5084C050009D0103421687B
:10E38000002907D008682060496828468847F6E7D2
:10E390000834F4E770BD0000F42A0020F8B52348E3
:10E3A000416800293ED00E6821494C688768807812
:10E3B000E11B0D022D0AED1C002814D101201D4A7D
:10E3C000000450601B4A403A50601B4940000860FE
:10E3D0001A4908601A49012008602F2002F042FB08
:10E3E000124901208870B54200D23546E819000272
:10E3F0000F4B000A403318600D4A5168001B091B7F
:10E400000902090A0002000AC91C814209D95068A0
:10E4100018602F2002F026FB0120074940048039B4
:10E420000860F8BD05F042FCF8BD00003421002072
:10E43000001501404013014080E200E000E100E0EF
:10E4400000100140F8B50646108814468446801D29
:10E450000D46984201D90C20F8BD32880720062AC3
:10E46000FAD31927FF01184BBA4201D99A42F3D1C6
:10E4700071880629F0D3B94201D99942ECD19A4268
:10E4800003D0994201D08A42E6D80521604629543A
:10E4900020881221401C80B2208029542088401CF2
:10E4A00080B220804119308806F0A4FD21884018F0
:10E4B00080B220804119708806F09CFD21884018A8
:10E4C00020800020F8BD0000FFFF000010B5FDF720
:10E4D000FFFF10BDF8B5164801F0B6FC144D00263C
:10E4E0000C3D144C002807D0616900291CD0012084
:10E4F0006A461070684616E02878002805D06169E1
:10E50000002911D0684606700DE0687800280DD00B
:10E51000A168094800220068FEF78CFA002803D0A1
:10E52000A169002900D088472E70F8BD6168F0E726
:10E53000602000207826002084550200F0B50026D7
:10E54000F643002A04D01268D2430023094F0DE09D
:10E550003246FAE7C45C624008245508D20700D06E
:10E5600032463A406A40641EF7D15B1C8B42F1D3BD
:10E57000D043F0BD2083B8ED10B50B4909480B4AD4
:10E58000096800BF00BF00BF00BF00BF00BF00BFE1
:10E5900000BF914200D000BF0138F2D1FEF7DCF994
:10E5A00010BD0000A0860100C02100200024F4005E
:10E5B0007FB50C46002802D0012004B070BD207940
:10E5C0000026002806D01B4D01281CD0022828D088
:10E5D0000F20F2E702960396E0680190694601A8D1
:10E5E00005F084FA00280AD002988188E18000882A
:10E5F000208169460988029805F0F2FA00E00A20B5
:10E6000002212171D9E70C4B6A460021A01D05F0BB
:10E610002BFA002807D0084908398E60CE600A28F6
:10E62000CBD12846C9E704488188019805F0D8FA7B
:10E63000F5E700001D1D000068210020F8B5002648
:10E640000124154D23E06968F00047183878214609
:10E650002A698140114218D08A432A6102F00CFDD8
:10E660003A782146EB68914019400346934099421D
:10E670000BD17978012901D0012100E000217B68CC
:10E680004140002B01D010469847761CF6B22878FE
:10E690008642D8D3F8BD000020210020044A00297A
:10E6A00001D1002313705268002A00D01047704730
:10E6B000B421002010B50E4900230A784C78A242FC
:10E6C00012D0521CD2B20A70022A00D10B700A7802
:10E6D000074B920018339A5802608868101800029D
:10E6E000000A8860012010BD0360002010BD0000FA
:10E6F000342100203EB5094D38CD00930295019498
:10E700006B46588099809A71054900220978FEF776
:10E710000DFF684600F08EF83EBD0000F85502007F
:10E72000B020002010B5047800222300FDF78EFAF7
:10E73000070605070D1D262C06000A7010BD0122D4
:10E740000A7002898A81828814E002220A70028992
:10E750008A818288CA81C2688A60007C062802D0C9
:10E760000020087410BD0120FBE703220A70C28854
:10E770008A810289CA81C068886010BD04230B7039
:10E78000C0888881CA8110BD0520087010BD0000B6
:10E7900070B5064D06460024A0002958002901D076
:10E7A00030468847641C082CF6D370BD942B00209B
:10E7B0000EB5002910D011290ED00022009202922D
:10E7C0006A46508001910D2907D0862907D009207B
:10E7D0001070104600F03CF80EBD0B20F8E70A2040
:10E7E000F6E7000001490968084700007020002092
:10E7F00070B5054D06460024A000295830468847CC
:10E80000641C022CF8D370BDA0550200F8B5074671
:10E810000024064E064D04E0A000315838468847D3
:10E82000641CE8788442F7DBF8BD0000A82A0020C9
:10E83000A020002070B5054D06460024A0002958F0
:10E8400030468847641C022CF8D370BDC0550200C6
:10E85000014909680847000004560200704700009B
:10E860007FB50446406800280BD000200390207834
:10E870000026414D0300FDF7E9F9066D0606304E0E
:10E880007B6D0120F2E7A08900F0DAF9002804D1BD
:10E89000E08905F0C7F900285CD0A08900F0CAF92A
:10E8A000014668464180E08905F0B6F901466846B0
:10E8B000017120780128606807D0002809D0042061
:10E8C000694608706068039020E00028F8D00320B3
:10E8D000F6E70120F4E708463AE0A08900F0B0F935
:10E8E000002804D1E08905F09DF9002832D0A089E4
:10E8F00000F0A0F969464880E08905F08DF9694685
:10E9000008716068002804D005200870A068029093
:10E91000E1E70220F9E7A08900F092F9002819D078
:10E92000E089002816D1A08900F084F96946488062
:10E93000E08905F071F9FF206946087160680028D8
:10E940000FD0072008706E70AE7004F075F868463E
:10E9500003F02EFF6878002802D06E7004F06CF887
:10E960007FBD062168460170408804F0F3F8EAE7AD
:10E97000082069460870AEE78C20002000B51049D9
:10E9800087B00978890702D4022007B000BD0D497D
:10E99000884201D10420F8E7052269460A70012265
:10E9A0000A71C88000221146684603F04BFB00281C
:10E9B00003D005F035F80020E7E70820E5E7000080
:10E9C00060210020FFFF000000B50F4887B00078ED
:10E9D000800702D4022007B000BD062069460870F7
:10E9E00000221146684603F02DFB002809D0074895
:10E9F0000178002901D00121017305F011F80020F0
:10EA0000E9E70820E7E7000060210020942C0020BF
:10EA100010B58CB014216846FCF7B9FB1D4800788E
:10EA2000810703D56846FFF7B3FE30E0C0072ED15B
:10EA3000012000F02BF900F0FBF901246846047571
:10EA400003F092FB0300FDF701F90C071107111BFE
:10EA5000190A191B1317131B0B200CB010BD022031
:10EA600000F014F9012000F0F7F8DBE7002000E0E7
:10EA700003206946087603E00220FAE76846047638
:10EA80000022114605A803F0DDFA04F0C9FF0020BA
:10EA9000E3E700006021002038B5040014D0694687
:10EAA00005F024F8002813D06846008801010948C1
:10EAB00009188889002809D0A27A002A06D0401EA9
:10EAC00088810020A07238BD052038BD062038BDE1
:10EAD0000A2038BD742C00201FB501A9684604F037
:10EAE000C3FF04B010BD07B513460A4669460020AF
:10EAF00004F0BAFF0EBD07B513460A46002168466A
:10EB000004F0B2FF0EBD002805D0002903D0006834
:10EB100008600020704705207047000038B50D469A
:10EB2000040017D0002D15D0694604F0DFFF00283F
:10EB300012D068460088616802010848121890895E
:10EB4000401C9081296060680C3068600120A072D0
:10EB5000002038BD052038BD0A2038BD742C0020A7
:10EB600010B5002804D00323002206F0A1FB10BD3D
:10EB7000052010BD10B50223002206F099FB10BD40
:10EB800010B5002A03D0022306F092FB10BD052029
:10EB900010BD000010B5064A5178082906D08B0038
:10EBA000044C491CE0505170002010BD0C2010BDD9
:10EBB00060210020942B002038B504460A480D46F9
:10EBC0000078800701D4022038BD002C0AD06946A5
:10EBD000284606F07DFC0028F6D169460988218088
:10EBE000658038BD052038BD6021002010B5044681
:10EBF0000E480078800701D4022010BD002C10D0F0
:10EC0000218802290FD80A4A0801801842896088A1
:10EC1000121A032A07D406F051FC002020806080DD
:10EC200010BD052010BD042010BD00006021002093
:10EC3000742C002003218903401A80B27047000021
:10EC400003218903401A0349884201D801207047F3
:10EC500000207047FE3F000002490A7882430A7094
:10EC6000704700006021002010B504460078182885
:10EC700002D1FEF725FC207010BD10B504460078C7
:10EC8000182802D1FEF71CFC207010BD02490A783A
:10EC900002430A70704700006021002070B50646EC
:10ECA00000200546862906D0112902D0002903D06C
:10ECB00070BD012500E001200E4C002A02460FD055
:10ECC00061793046FEF732FC2A4621793046FEF75C
:10ECD0002DFC002261783046FEF728FC002204E07B
:10ECE00061783046FEF722FC2A4621783046FEF74E
:10ECF0001DFC70BDB420002010B500290DD10748BF
:10ED000007A1826D032002F0ADFF104C1321206893
:10ED1000808876DF21680120087510BD203500202D
:10ED20003A494E464F3A4F627461696E656420738A
:10ED3000657474696E67732C20656E7465722064E7
:10ED400066752069732025640A00000014210020E4
:10ED5000F8B506461C481F46007815460C46C00705
:10ED60000AD03046FFF7CCFA002807D0002C07D095
:10ED7000A00507D00620F8BD0120F8BD0220F8BD8F
:10ED80000320F8BD3068A04204D8A80271680019B9
:10ED9000884201D90520F8BD002D10D0684604F046
:10EDA00091FD00280DD000980221C0C00170A10182
:10EDB000090C8180058104F041FE0020F8BD04208B
:10EDC000F8BD0720F8BD00007821002010B50846E6
:10EDD00004F094FD10BD0000F8B50D4C0746206806
:10EDE0000225400840000E46206000290DD009A1F0
:10EDF000032002F011FF2068284320607A68002A6F
:10EE000002D0314638469047F8BDA843F5E70000E8
:10EE1000BC2100203A494E464F3A47656E65726103
:10EE200074696E67206661696C7572650D0A000011
:10EE3000F0B52648264C001B0309264819464069B0
:10EE4000421C03D10120000740698002224A127847
:10EE50009646D2070CD00020F0BD1D4C15012C1990
:10EE60002568002D03D06468002C00D0491E521C78
:10EE70009A42F2D3002420E0E2B2002594462A46CA
:10EE80000FE0134E1701BE193768002F02D07768C4
:10EE9000002F05D1767BAE4202D93546D6B2B446B4
:10EEA000521C9A42EDD362461501094AAA185060D5
:10EEB000157BAD02401B641C10608C42DCD30648FD
:10EEC0007146012211430170C5E70000E4210020D2
:10EED000C421002000100010782100200348406E5B
:10EEE000042801D00020704701207047A42C002086
:10EEF000002804D00349496E0160002070470320B8
:10EF000070470000A42C0020F8B507461E481E4696
:10EF1000007815460C46C0070ED03846FFF7F0F9CA
:10EF200000280BD0002D0BD0002C09D02846204300
:10EF3000800707D00620F8BD0120F8BD0220F8BDEB
:10EF40000320F8BD3868A04204D8B10078680919D8
:10EF5000884201D20520F8BD002E11D0684604F089
:10EF6000B1FC00280ED0009806990760416001218D
:10EF70000172C5600461868204F060FD0020F8BD66
:10EF80000420F8BD0720F8BD7821002070B5174B8C
:10EF90000446186E182148431549C0180A78950789
:10EFA00015D5022C02D0032C1CD102E003F020F86E
:10EFB00018E04A78521CD2B24A70032A12D90022B1
:10EFC0004A70082105F06CF804F066FC0AE050076E
:10EFD00008D5FB2002400A70586E002802D002209B
:10EFE00002430A7004F0E6FC70BD0000A42C00206F
:10EFF000782100200EB5112069460872092211A15E
:10F0000002A87CDF002801D0FDF762FA104878DF03
:10F01000002801D0FDF75CFA0020FF220090413269
:10F02000694601900A804122D2004A808880FF20F0
:10F030009130C88068467ADF002801D0FDF748FA91
:10F040000EBD0000477265656E4C756E670000006E
:10F050004103000010B50248FEF71FFD10BD00007F
:10F06000A423002010B50449044801F0A3FC0028A3
:10F0700001D0FDF72DFA10BD55F00100F42300205A
:10F0800070B5002801D0012070BD164C0025207BF2
:10F09000002801D0257301E000F09CF820780300DF
:10F0A000FCF7D4FD081E05080B0E1E111A1E00F0F9
:10F0B0001BF870BD00F07EF870BD00F061F870BD07
:10F0C00000F038F870BD608806490001203940180A
:10F0D000406803F029F870BD656003F033F870BD37
:10F0E0000F2070BD942C002070B5104900208A1CA0
:10F0F0000D460346203D0C18A67A002E08D0A372B8
:10F1000004016419A689002E02D1A47B012C08D029
:10F11000401C80B20228EED30B704B8004484B6039
:10F1200070BD108000F046F870BD0000942C0020E7
:10F130001D1D000010B50F4C6088010120462038CD
:10F140000818818900290BD0052020700A48022167
:10F1500081800168002301220848FFF7F9FD10BDF6
:10F160004168002301220548FFF7F2FD04212170C8
:10F1700010BD0000942C002070210020C42100202C
:10F1800038B50A4908480B688988426889005918C7
:10F190005388032404700020DB1C00909BB20448B9
:10F1A000FFF7B2FE38BD0000942C00207021002033
:10F1B000C421002010B506494888091D04F0E6FC6A
:10F1C000002802D0FFF7DCFF10BDFFF7B3FF10BD32
:10F1D000942C0020F0B51D481D49077802460125F2
:10F1E00002268C88203A3B00FCF730FD08051717F3
:10F1F0001A212C2C16170189491C018100214180FC
:10F2000001730B01D35C002B08D000234418491C68
:10F2100089B2A3720229F4D30570F0BD0123F5E78A
:10F2200042685288D21CA2188A800670F0BD4588B8
:10F230000B682D01AA1855680D60536014818E80EB
:10F24000062100E007210170F0BD0000942C002091
:10F2500070210020F0B504460088384D8DB050284C
:10F260001DD0522802D0542826D103E0A08801F0F6
:10F270007BF821E0062069460870A08800F0CCFCED
:10F2800069464880A2888A8000F054F9A08800224C
:10F29000E978FEF74BF96846FFF7A4FA0CE0207B0B
:10F2A000012809D1A07A012806D120892449884261
:10F2B00002D1A08801F094F8A878FEF719F9002887
:10F2C00019D008A8FEF748F8142208A903A8FBF7EC
:10F2D00037FF002403AE0BE060008719B888A978D7
:10F2E000FEF712F9002802D0B88801F03DF8641C3E
:10F2F0000398A042F0D86878FEF7FAF8002819D0F1
:10F3000008A8FEF729F8142208A903A8FBF718FF9C
:10F31000002403AE0BE060008719B8886978FEF717
:10F32000F3F8002802D0B88801F05AF8641C03985A
:10F33000A042F0D804F0FCFE0DB0F0BD6820002023
:10F34000022900003EB5044640886946488020787E
:10F35000002814D001281DD002280FD120790028C0
:10F360000CD0608800F08CFB0E49884206D00E4914
:10F370000122C978FEF7DAF804F0DAFE3EBD00207B
:10F3800008700846FFF72EFA608800F079FB00F05D
:10F39000EBFF3EBD012168460170A1888180FFF727
:10F3A00021FA3EBDFFFF00006820002010B5044692
:10F3B000007801280DD1608800F0D6FF608800F049
:10F3C0007FF9002805D0034960880122C978FEF73B
:10F3D000ADF810BD6820002010B5104C0020207042
:10F3E000FEF76EF86070FEF76BF8A070FEF768F835
:10F3F000E070FEF765F82071617818290BD0A178CC
:10F40000182908D0E178182905D0182803D0012040
:10F410002070002010BD032010BD000068200020D7
:10F42000F0B585B000F09EF86846FDF795FF002422
:10F430006D460C4F0EE060004619B08800F0ECFB02
:10F44000B84205D10849B0880122C978FEF76EF8A4
:10F45000641CA4B20098A042EDD804F069FE05B087
:10F46000F0BD0000FFFF00006820002010B501780B
:10F47000072902D1408800F0B3FF10BD10B5044643
:10F480000A4841782046FEF73FF800280CD008488B
:10F4900000210C224A4312185288A24201D1C8B25C
:10F4A00010BD491C0829F4D3FF2010BD8020002086
:10F4B000C826002070B5094D094E00240C20604379
:10F4C000401940887178FEF71FF8002804D0641CAA
:10F4D000082CF3D3FF2070BDE0B270BDC826002019
:10F4E00080200020F8B50746104E0125BD40306849
:10F4F000FDF7E4FA00280DD10D4C2069284207D110
:10F50000384601F0B9FD0028E06804D0284303E044
:10F51000A8432061F8BDA843E06020690022284389
:10F520002061A1683068FDF785FAF8BD1C5602001D
:10F53000202100201CB5054A9168D26801920091F3
:10F540000022694602F0FCFF1CBD00008C55020041
:10F5500003480021C94381800121017000207047C8
:10F560007420002010B5044802F01EFF0349888073
:10F5700004F00AFE10BD0000FFFF00007420002010
:10F58000F1B582B0029800F047FB0024164903252C
:10F5900001272646884209D06A46082102F0A6FFC4
:10F5A000002803D1019886880568841D2B463246C1
:10F5B00021460298A9DF042804D0082804D00B288B
:10F5C00007D002E0112000E00020002F00D10B2026
:10F5D000FEBD0027A80701D50125E7E73443F6D093
:10F5E000002426460325E1E7FFFF0000F1B582B0C5
:10F5F000029800F011FB07461B48874201D11B48C7
:10F60000FEBD01252A466D1C0026ADB26B460821C1
:10F61000384602F09BFF040002D0072C21D021E0E5
:10F62000019903230B600A1D891D0298AADF0400BB
:10F6300004D00C2C08D0052C08D008E0082138464E
:10F6400003F01EF804460DE0012600E00024082126
:10F65000384602F0FFFF002800D00324002ED1D14D
:10F6600000E00C242046FEBDFFFF00000230000039
:10F670001FB504460078012815D12079012812D140
:10F68000608802AA012102F031FF00280BD102217B
:10F69000684601706188418003980178684601716D
:10F6A0000549096888470448044908388088884221
:10F6B00001D004F069FD1FBD7C200020FFFF000089
:10F6C0001CB500F0A9FA6A46012102F00FFF0028DC
:10F6D00001D000201CBD019800781CBDF8B5074E74
:10F6E000074C084D0746324661883846A7DFA842D6
:10F6F00003D16088401C6080F5E7F8BDFFFF000083
:10F70000742000200330000030B50848012101605A
:10F71000074A00231360074C21601568002DFCD0B8
:10F7200082686160036090B230BD000000750040E7
:10F73000007100400070004010B50A4901220A60C3
:10F74000437802789B001A438378C4785B012402D3
:10F75000007923431A43000402434A6000200860F2
:10F7600010BD0000007500408188054A914204D018
:10F770000088002801D00120704700207047000059
:10F78000FFFF000010B588B0062201A93B2001F060
:10F7900039F8002803D11FA1032002F03DFA684682
:10F7A0000089264940BA401EC04300B2884205DDA8
:10F7B0000120FEF741FAFBF7EDFF02E00120FEF722
:10F7C00031FA032104A8FCF70DF8002803D11CA18D
:10F7D000032002F021FA6846018A22480623426883
:10F7E000521C426001AA20480091FEF7B3F80400C1
:10F7F0000ED0082C0CD01D48844209D01C488442ED
:10F8000006D01CA1032002F007FA2046FCF760FE98
:10F8100008B010BD4150503A494E464F3A4D5055F0
:10F820003630353020526561642064617461207423
:10F83000696D656F7574210D0A0000006C39000058
:10F840004150503A494E464F3A5344503378205233
:10F850006561642064617461206572726F72210D4C
:10F860000A000000E81F0020A4230020043000004C
:10F87000013400004150503A494E464F3A424C45FF
:10F8800020446174612073656E64206572726F72CA
:10F890002E0D0A00F0B5002406460D46601C010737
:10F8A000B7B0090F08A810310C940174297B41747A
:10F8B000817CF9273940891C81741C2105A8FBF73C
:10F8C00066FC6846017D10200143684601750CA85E
:10F8D00006940A900894099401220B9408A8827651
:10F8E0001749684601870D94697B08A80175A97BB3
:10F8F0004175817DF7203940891C0140EF2001408E
:10F90000114308A8817514216846FBF740FC0EA836
:10F9100000900DA801900FAA0021304600F012F8C7
:10F920000146684601819B21448181810FA8049092
:10F930003346F08808336A4605A9A2DF37B0F0BD28
:10F94000372A000010B544790023002C00D004238E
:10F95000203084780220002C00D003430120034390
:10F960005170080A90700320137010BD3EB5044614
:10F9700000780D46022815D10322611C6846FBF76A
:10F98000DFFB0322211D02A8FBF7DAFB01AA02A973
:10F990002846FCF700FD032201A96846FBF709FC95
:10F9A000002801D000203EBD01203EBD10B50C4610
:10F9B000FFF764FDFF280AD00C21484305490722C0
:10F9C00041182046091DFBF7BBFB002010BD052098
:10F9D00010BD0000C826002070B5018890B0102925
:10F9E00049D1011D2C2202A8FBF7AAFB6846234E31
:10F9F000007B344602AD03282AD002F049FF684656
:10FA0000007B00280ED001280CD0022820D118E05D
:10FA10000E99281D1131FCF788FB002802D068469A
:10FA2000048815E00DAA6946072002F007FF0028A8
:10FA3000EED10DE00E99281D491CFFF797FF002815
:10FA4000EDD10DAA6946072002F0F8FE0028F1D199
:10FA500068460089291D00F05DFFB4420BD068465E
:10FA60000089214600F086F868460189418001211D
:10FA70000170FEF7BDFE10B070BD0000FFFF00007A
:10FA8000084A00210C234B43D35A834204D10C2053
:10FA90004143881840887047491C0829F2D302481E
:10FAA00070470000C8260020FFFF000010B50E4C74
:10FAB000182060700D4A0E4900200C2343435B1848
:10FAC000401C5A800828F8D3FDF7FAFC607018280B
:10FAD00004D00548C01C71DF002801D0032010BDF0
:10FAE00001202070002010BD80200020FFFF0000BA
:10FAF000C826002070B504460D46401C00F0DCF915
:10FB0000002810D01022691C601CFBF752FB002853
:10FB10000AD000262946204611311130FCF705FB9A
:10FB200001463046084370BD0126F3E701880029ED
:10FB300003D142189278002A01D001207047491C55
:10FB40000829F6D30020704710B50C460346FFF78E
:10FB5000EDFF00280BD018882188884206D10822A2
:10FB6000A11C981CFBF725FB002801D0002010BD2C
:10FB7000012010BD10B503F049F810BD10B50446C2
:10FB8000007888B0002826D12079072823D1608802
:10FB900001AA072102F0AAFC00281CD102F078FE7D
:10FBA0001BE0694660880988884216D0049902984B
:10FBB000FFF7A0FF002810D06088FFF761FF014623
:10FBC0006846C182002101756188018301884183F3
:10FBD00005A8FEF70DFE08B010BD03AA6946072070
:10FBE00002F02CFE0028DCD1F5E7000070B50446D9
:10FBF000FFF746FF0546204602F07DFC0549044616
:10FC00008D4204D0002C02D1284602F0FFFF20468E
:10FC100070BD0000FFFF000010B5FFF72FFCFF28AC
:10FC200004D00C2148430249085A10BD014810BDB8
:10FC3000C8260020FFFF00003EB5044602F028FE63
:10FC400010E0019920464631FFF77EFF002806D1DB
:10FC5000019920462A31FFF777FF002802D0684635
:10FC600000893EBD6A4602A9072002F0E7FD002890
:10FC7000E7D101483EBD0000FFFF0000F8B50F4688
:10FC8000002804D00120FEF7E7FF0120F8BD3979F4
:10FC900000290AD00026254D01290BD0244C022929
:10FCA00020681FD003293BD125E002F04BFA012147
:10FCB000397133E000200101695C02290BD0401C3E
:10FCC00080B20228F7D30220FEF7E0FF0120FEF702
:10FCD000C3FF1848F8BD04016019406802F024FA17
:10FCE0002E551BE00146002301221348FFF730F890
:10FCF0000221A18011E002F017FA0C49236820319B
:10FD000049880A01094951184D6825604B60A3884C
:10FD10000B810221A18005498E543E710028D9D063
:10FD20000120FEF799FF0E20F8BD0000742C002082
:10FD3000702100201D1D0000C4210020F8B51E4CBC
:10FD40002078002836D0E068002600280CD0002556
:10FD5000607800282ED1684652DF052806D000289A
:10FD600006D0FCF7B5FB0BE00125F1E7012607E023
:10FD7000009801F0ABF82169002901D0009888476C
:10FD8000002D13D16078002814D16088694608805E
:10FD9000A06861DF052804D0002804D0FCF798FB98
:10FDA00004E0012502E0E168A0688847002ECFD07A
:10FDB000002DE5D0F8BD00009C210020F7B50025FE
:10FDC000164604462F4616E0A80001210904A94062
:10FDD000FF3041302258002A0BD003221202A21811
:10FDE00052680A4205D02750019A01991268496861
:10FDF00090476D1CEDB2B542E6D3FEBD01218140B6
:10FE000003484068014201D001207047002070473C
:10FE1000182100200121814003484078014201D08F
:10FE2000012070470020704718210020014610B5BE
:10FE300001208840FCF78AFE10BD0121814088071F
:10FE400000D0012070470000418805480288914297
:10FE500004D34088814201D80120704700207047B8
:10FE6000582000201048018CC9B2012917D1818C7B
:10FE7000090714D1018D09060A0F03D1828D1206DC
:10FE8000120F0ED0090F012903D1828D1206120F15
:10FE900007D0032903D1808D0006000F01D0002078
:10FEA0007047012070470000C00F00F00121814021
:10FEB000880400D0012070470021425C002A01D054
:10FEC00001207047491C1029F7D300207047800794
:10FED00001D00020704701207047000010B5044891
:10FEE000017AC90702D00078FEF758F810BD00006B
:10FEF00008200020FFB5244D81B0287A1F460E4609
:10FF0000084304D0039A002E04D0002104E0052009
:10FF100005B0F0BD1C491031019804F037FC0446CF
:10FF2000014600220198FEF7B9FE002F03D02146BA
:10FF30000198FEF73DFC112C0FD006DC002C0AD0F6
:10FF4000082C08D00D2C05D105E0862C11D00F48C7
:10FF5000C44200D003242046DAE73246E97801980B
:10FF6000FDF7E4FAA978039A0198FDF7DFFA002477
:10FF7000F1E73246E9780198FDF7D8FAA978039AB3
:10FF80000198FDF7D3FAE6E7B4200020FECFFFFF8B
:10FF9000FEB517460C00064604D02078C00704D0F2
:10FFA000012003E000217EDFFEBD022069460871CA
:10FFB0003046FFF731FE17490546884208D001A8B0
:10FFC00000902B463A462146304600F025F806E0E0
:10FFD00020782146C007304603D000F081F804465F
:10FFE0000BE07EDF044600200090002C08D00022A9
:10FFF00001232946304604F01FF8002C02D006E009
:020000040002F8
:100000000122F5E768460179304604F03BF82046C6
:10001000FEBD0000FFFF0000FFB585B000252E46A5
:1000200001AA07210E9F089802F060FA040008D187
:10003000029D4420405D1835C607F60F01D0029D91
:1000400034350798204312D1002D10D0002E05D151
:1000500028461230FFF76AFD002808D029462A46B4
:100060001231059885DF04460020387023E0002C0B
:1000700001D0052C1FD106980078C0070DD003AB26
:1000800001220721089802F061FA04000AD1072131
:10009000089802F059FB040004D1069905987EDF08
:1000A000040008D00721089802F0D4FA002802D0F2
:1000B000052800D00324002000903878002801D0C3
:1000C000012300E00023002C07D0002208990598A6
:1000D00003F0B2FF204609B0F0BD0122F6E70000B0
:1000E000FEB50F46064602F0FDF905461848854262
:1000F00020D001AB01220721284602F027FA040094
:100100000AD10721284602F01FFB040004D139461A
:1001100030467EDF040008D00721284602F09AFA14
:10012000002802D0052800D0032401200090002CD4
:100130000BD002E003240020009000220123294676
:10014000304603F079FF2046FEBD0122F6E70000AD
:10015000FFFF0000F7B5114D0F46164629780098AD
:10016000FDF7D2F9002812D00098FFF755FD04469C
:100170000B4884420BD069780098FDF7C5F9002838
:1001800006D033463A462146009802F065F8FEBD97
:10019000324639460098FEF7ADFAFEBDB020002089
:1001A000FFFF0000F1B586B00698FDF7A1F9002821
:1001B00021D06846FDF7D0F800246E4618E06000B4
:1001C0008519A8880699FDF79FF900280FD00B4FD5
:1001D000A888B978FDF798F90590A888F978FDF70F
:1001E00093F90146A8880123059AFFF783FE641C52
:1001F0000098A042E3D807B0F0BD0000B420002072
:10020000F0B5284C2146103948688B68227886461C
:100210009C46CF78667836E0182353436168521CB9
:10022000C918A378D2B2934200D100220B78022BD6
:1002300002D0032B27D123E003464D68194603E083
:10024000A94204D00B46C96900291CD0F8E700294F
:1002500019D08B4208D1C069002805D1124F012561
:10026000BD600025AC4601270D68C969D961002928
:1002700009D00B685B190B6005E00174C06900E0F0
:1002800000210028F9D19642C6D1064962461039AC
:100290008A604860CF70704501D00120F0BD002019
:1002A000F0BD00004421002000100140F8B52C4EA4
:1002B000044670680025009041E0002C02D02046E2
:1002C000E46920E0264818231030017842684B4347
:1002D000491CC9B2D21801708378994200D10570C7
:1002E0001178506801292CD1017C002929D191680D
:1002F0004160D16881601169C16051698161F178A3
:10030000002900D045604368B268164F991A090267
:10031000090AB94202D28268891806E0D11A090294
:100320008268090A8A4202D9511A016000E0056018
:100330004560012185600174C56104F04FFC002C0B
:10034000BBD107481030017840788142BAD171683A
:100350000098814201D00120F8BD0020F8BD0000C6
:1003600034210020FFFF7F00FEB504461948002617
:1003700084422DD02046FFF703F9050012D00B2D43
:1003800014D0112D10D01448C5421BD00921684645
:1003900001702046FFF740FC01466846418084809A
:1003A00002950DE0022102E001260BE003216846E0
:1003B00001702046FFF730FC01466846418084808A
:1003C000FEF710FA0548324681782046FDF7AEF870
:1003D000FEBD0000FFFF0000FECFFFFF68200020F1
:1003E000FEB504460026FFF701F90546112818D08E
:1003F00004DC002D13D00C2D05D114E0862D25D062
:100400001348C5421BD00921684601702046FFF7FA
:1004100003FC014668464180848002950DE001217D
:1004200002E001260BE00721684601708480204627
:10043000FFF7F2FB014668464180FEF7D3F9054815
:10044000324641782046FDF771F8FEBD0821EBE702
:10045000FECFFFFF68200020F8B5054600780C4667
:10046000002620420FD10020694608706846FCF73C
:1004700039FB2878204202D12043287001266846A3
:100480000078FCF74DFB3046F8BD00001CB5084A6B
:100490006B4650700220002218709A70D9701A7141
:1004A000002900D1062058701846FFF745F91CBDF9
:1004B000FC1F002098B0002001F07EFC002801D035
:1004C000FCF706F804F00EFC6C4A6D490320FDF7BA
:1004D00019FD002801D0FBF7FBFF01A90020FDF763
:1004E000FDFB002801D0FBF7F3FF684600790228E6
:1004F00009D0002069460870FBF732F90021052079
:10050000FFF7C4FF08E00120F4E75EA1032001F03B
:1005100083FB0220FDF790FB04F072FC0028F4D06E
:10052000642000F053FA06E05EA1032001F074FBA2
:100530000220FDF781FBFBF79BF80028F4D062A1B5
:1005400003E00220FDF778FB66A1032001F064FBC5
:10055000FBF794F90028F4D00220FDF763FB69A1B2
:10056000032001F059FBFDF7BBFA6846007802F062
:1005700061FB68460078002803D069A1032001F0E0
:100580004BFBFEF737FD3C2101A8FAF700FE0221E4
:1005900068460171012484710621C1710325858299
:1005A00066480690202110A8FAF7F1FD10A8C47043
:1005B000FF202D301490B42000241590604B10AA19
:1005C0002146009401A8FCF733FC002801D0FBF77A
:1005D0007FFFFEF747FD03F08DFE1C216846FAF70A
:1005E000D6FD0F2005260004F60302900196009424
:1005F00068460573534881896846C181047452482E
:100600000590524806906846FCF734FE002801D059
:10061000FBF75EFF4EA1032001F0FEFA554C0121CD
:10062000002209042068FCF705FA002801D0FBF736
:100630004FFF002250496068FCF7FCF9002801D008
:10064000FBF746FF00223146A068FCF7F3F90028CB
:1006500001D0FBF73DFFFBF795FE0020FDF7F6FB11
:10066000002801D003F03EFF01F024FA0028F4D165
:1006700048DF0028F1D0FBF72BFFEEE755DE010045
:10068000CD0C00004150503A494E464F3A5457491C
:1006900020696E697469616C206572726F722E0DCB
:1006A0000A0000004150503A494E464F3A4D5055CD
:1006B0003630353020696E697469616C20657272FC
:1006C0006F722E0D0A0000004150503A494E464FBD
:1006D0003A4D505536303530206973207573656456
:1006E000210D0A004150503A494E464F3A5344506A
:1006F000337820696E697469616C206572726F72FB
:100700002E0D0A004150503A494E464F3A5344503C
:1007100033782069732075736564210D0A00000029
:100720004150503A494E464F3A426F6E64732065CD
:100730007261736564210D0A00000000F01F002043
:10074000DD1D0200A4230020251F0200CDE40100CE
:100750004150503A494E464F3A48656172742052B2
:100760006174652053656E736F7220537461727487
:10077000210D0A00245502006626000070B51446BB
:1007800082880E4605462088111D4118921C994208
:1007900001D8FE2A01D90C2070BD521C3254208889
:1007A000FF21401C80B2208031542088401C80B240
:1007B00020808119288804F01DFC2188401880B20F
:1007C0002080AA88002A09D0A968002908D08019A9
:1007D000FAF7B6FC2088A98840182080002070BD58
:1007E000072070BD10B50649D22008700721682087
:1007F00000F022F8044600F02DF8204010BD000063
:10080000B0210020F7B50B4C15460E4600230122FF
:100810006946207804F07EFB0746207801210843D2
:100820000B462A46314604F075FB0146394008461E
:10083000FEBD0000B021002008B56A46107051705E
:100840000348012302226946007804F063FB08BDD7
:10085000B021002008B5012269467520FFF7D2FFBC
:10086000002804D068460078682801D0002008BD20
:10087000012008BDF8B50F46017814460546012948
:1008800002D16878002806D02088821C9A422DD890
:10089000012902D006E00720F8BD69784118891CBB
:1008A000994223D8181A801E86B26846068021888D
:1008B000B81C081869467DDF0028EDD12878022889
:1008C00005D169460988B14201D809210AE0082109
:1008D000012805D16878B04202D86A46108001E04C
:1008E0006846068068460088FE2801D90C20F8BDBD
:1008F0002288401CB8542088401C80B22080395483
:1009000020886946401C20800988401820800020EB
:10091000F8BD0000F8B5FF240F46054600291FD09A
:10092000104EB5421CD01048012241782846FCF7F1
:10093000FDFD2846FEF7A2FD0446FF2804D1FEF780
:10094000B9FD0446FF280BD00C2148430749024655
:10095000401845808E5207223946001DFAF7F0FBF9
:100960002046F8BDFFFF000080200020C8260020A0
:1009700070B50B4D0E46A84201D1002000E0401C8E
:1009800084B209E02146304602F062FB002801D023
:10099000204670BD641CA4B2FF2CF3D9284670BD5C
:1009A000FFFF0000C20843075B0F0120895C9840ED
:1009B00008407047002070477047012189074018A0
:1009C0000068002800D00120704700007D21C90088
:1009D00048430FD00849094A096800BF00BF00BF5B
:1009E00000BF00BF00BF00BF00BF914200D000BFEA
:1009F0000138F2D170470000C02100200024F4002B
:100A00007D21C90048430FD00849094A096800BF41
:100A100000BF00BF00BF00BF00BF00BF00BF9142CA
:100A200000D000BF0138F2D170470000C021002083
:100A30000024F40000280FD00849094A096800BFC3
:100A400000BF00BF00BF00BF00BF00BF00BF91429A
:100A500000D000BF0138F2D170470000C021002053
:100A60000024F40000280FD00849094A096800BF93
:100A700000BF00BF00BF00BF00BF00BF00BF91426A
:100A800000D000BF0138F2D170470000C021002023
:100A90000024F400F7B50E460B46002514A10320F0
:100AA000009A01F00FF91B4C206841071DD5810702
:100AB00005D519A1032001F0AFF80A20FEBD0127DA
:100AC00038432060B2B21D48029B0099FEF740F9FE
