:020000040001F9
:10B00000183F0020D5B00100EFB00100F1B0010001
:10B010000000000000000000000000000000000030
:10B02000000000000000000000000000F3B001007C
:10B030000000000000000000F5B00100F7B00100C2
:10B040006DB90100F9B00100F9B0010029BD01009E
:10B05000F9B001000000000079B60100F9B001006C
:10B0600031BE010049BE0100F9B00100A1BA0100E2
:10B07000F9B00100F9B00100F9B00100F9B0010028
:10B08000F9B00100B5BA0100F9B00100F9B0010052
:10B0900069BD0100F9B0010071BD0100F9B0010006
:10B0A000F9B00100F9B0010000000000000000004C
:10B0B0000000000000000000000000000000000090
:10B0C0000348854600F0CAF900480047790A0200A3
:10B0D000183F00200321094802680A43026008481B
:10B0E00002680A4302600748804707480047FEE7B6
:10B0F000FEE7FEE7FEE7FEE7FEE70000240500406E
:10B100005405004091BD0100C1B0010030B50B46AF
:10B11000014600202022012409E00D46D5409D4231
:10B1200005D31D469540491B2546954040191546B7
:10B13000521E002DF1DC30BD0048704798640200BB
:10B1400010B5431A934209D28318881803E0401EB1
:10B1500001785B1E1970521EF9D210BD03460B43D5
:10B160009B0703D009E008C9121F08C0042AFAD2BD
:10B1700003E00B780370401C491C521EF9D210BD2D
:10B18000D2B201E00270401C491EFBD2704700227F
:10B19000F6E710B513460A4604461946FFF7F0FFD6
:10B1A000204610BD421C0178401C0029FBD1801AAA
:10B1B000704730B504460020034600E05B1C934214
:10B1C00003D2E05CCD5C401BF8D030BD03460A786A
:10B1D0000270401C491C002AF9D118467047F8B586
:10B1E00002464A40D40F42004B0052085B089A4284
:10B1F00002D20246084611464A0023D0C30D4A0037
:10B20000DDB2120EAD1A202D35DA49020126490AA7
:10B21000F6058A19002C00D0524220214F1B1146FE
:10B22000B9402A411018C20D9A4221D0002C17D0E3
:10B23000012D08DCDA05801AD20F8019D207DBB2A3
:10B2400000F0D3F8F8BDDA05801A012340001B0690
:10B25000C01880185A428018CA0F1043490007E0EE
:10B260004908C2071143DA05801A8019400880187E
:10B2700000F0B3F8F8BD61000122511A001BF7E796
:10B280000122D2075140AAE70122D2075040A6E787
:10B29000024670B54A40D30FDB0740002DD04A006C
:10B2A0002AD0010E140E000212020919400A520A95
:10B2B0008418E50104465443000A120A2E04504340
:10B2C000A4194219200CC543AA18120C0125AD037C
:10B2D000521C521912047F39240400D0521C10430E
:10B2E00001D44000491EC2B20C06C0092018401CFF
:10B2F0004008802A02D003E0002070BD40084000D2
:10B30000002900DA0020184370BD420005D0420039
:10B31000120E52428A4201DB00207047C90508180C
:10B32000704710B500229623114600F05EF810BD5C
:10B33000410040020122400AD205090E80187F29EF
:10B3400001DA00207047962903DC9622511AC84082
:10B350007047963988407047F0B51FB40646002004
:10B3600082B005464024019100901BE001992246DD
:10B370000F46304600F020F8049A059B801A994148
:10B3800010D310461946224600F07AF8361A8F413B
:10B390000197224601200021009F00F071F8381823
:10B3A0004D4100902046641E0028DFDC019B009880
:10B3B0002946324607B0F0BD10B5202A04DB084606
:10B3C000203AD040002110BD0B46D340D04020246D
:10B3D000A21A91400843194610BD002904DA401C06
:10B3E000490001D140084000704770B40024050CAA
:10B3F00005D11024000402D1002921D01124050E0A
:10B4000001D100020834050F01D10001241D850F70
:10B4100001D18000A41C002801DB4000641C00292D
:10B4200008D020252E1B0D46F540A14000D001215B
:10B430002943084301061B1B000ADB1D02D500201F
:10B4400070BC7047DB05181880180029F8DA401C1A
:10B450004900F5D170BC400840007047064C0125FA
:10B46000064E05E0E36807CC2B430C3C98471034AC
:10B47000B442F7D3FFF728FE7C6502009C6502000A
:10B4800010B5202A04DB0146203A9140002010BD6F
:10B49000914020239C1A0346E3401943904010BD7D
:10B4A00070B58C180578401C6B075B0F01D10378D1
:10B4B000401C2A1106D10278401C03E006780E7069
:10B4C000401C491C5B1EF9D12B0705D40023521EDA
:10B4D0000DD40B70491CFAE70378401CCB1A921C60
:10B4E00003E01D780D70491C5B1C521EF9D5A1426A
:10B4F000D8D3002070BD000010B51449302008706A
:10B500000021112000F042F8114904467D20114A23
:10B510000968C00000BF00BF00BF00BF00BF00BF80
:10B5200000BF00BF914200D000BF0138F2D100F04F
:10B5300041F804400B21102000F028F804400321BA
:10B540000F2000F023F8204010BD0000EA21002069
:10B55000F82100200024F400F7B50B4C15460E46E8
:10B5600000230122694620780AF0EAFA074620788B
:10B57000012108430B462A4631460AF0E1FA01460A
:10B5800039400846FEBD0000EA21002008B56A46A1
:10B5900010705170034801230222694600780AF0B6
:10B5A000CFFA08BDEA21002010B520211120FFF7B5
:10B5B000EDFF10BD08B50020694608700122FFF7B5
:10B5C000CBFF00280AD06846027806A1032006F0C7
:10B5D0006DFF68460078FA2801D0002008BD0120E0
:10B5E00008BD0000424D413A494E464F3A626D61F6
:10B5F0005F636869705F49442069732025640D0AA0
:10B600000000000010B500F0F5F9FFF7CDFF0028AD
:10B6100003D007A1032006F023FF00F05BFA002807
:10B6200003D00CA1032006F01BFF01F011FC10BD9C
:10B630004150503A494E464F3A424D4132353320FF
:10B6400077656E7420696E746F20736C6565702108
:10B650000D0A00004150503A494E464F3A5344506B
:10B6600033782077656E7420696E746F20736C6513
:10B670006570210D0A000000F0B50024FF268BB094
:10B680000136012527460694304606F003FD0028C2
:10B6900007D054484068284203D0304606F0F2FCF8
:10B6A0002C43361D6D007F1CB6B2042FECD3FF2552
:10B6B0007D35284606F0EEFC002809D0284606F025
:10B6C000E1FC6807044306AA0121002006F0C6FC3D
:10B6D000454D200714D00127002627420CD04348AF
:10B6E000B200111808690969C004C00E8903AA587C
:10B6F000890F002A00D090477F00761C042EECD3DF
:10B70000002C6DDA00200890401E63E028194030BC
:10B710000778B906890E009100214156491C49D08D
:10B7200009A9009805F0F6FB002843D0B80901905C
:10B73000009803F03FF880002F580198002F02D0A6
:10B74000032802D00DE0032834D1009808ABC208CA
:10B7500041079446985C490F01228A401043624693
:10B760009854009805210907800040180721090214
:10B770004018006806A98003800F0290009805F029
:10B78000C9FB0028029802D0022802D012E0032848
:10B7900010D10198032808D1029802281ED0022156
:10B7A000009806F02AFC761CF6B2002F02D0019910
:10B7B0000098B847641C042CA8D3002E10D06A4609
:10B7C0000121002006F04AFC06990098884207D023
:10B7D0000690089800263446099097E70321DFE792
:10B7E0000BB0F0BD00630040802B002000650040DE
:10B7F000F8B5062904D22FA1032006F031FE57E048
:10B800004179027909021143491EC9430BB2C1783B
:10B810008278090211434278047810022043401EC6
:10B82000C0432E4A00B22F4C491E8618C9432C4FE4
:10B8300060786279002509B2BE4224D27D26F600E6
:10B84000F14220DD254E761CB1421CDA26498B429E
:10B8500019DD26498B4216DA2582E189052901D8AE
:10B86000491CE181104323D188B2052820D920A1A9
:10B87000032006F0F5FD01206070E581002102F053
:10B88000B1FE0120F8BDE581218A0A2901D8491CB1
:10B89000218290430CD088B20A2809D9657025828C
:10B8A0001AA1032006F0DCFD0121022002F09AFE1D
:10B8B0000020F8BD4150503A494E464F3A4163632B
:10B8C000656C2064617461206C656E6774682074B7
:10B8D0006F6F2073686F7274210D0A006F1700007C
:10B8E0009F0F0000E81F0020A438000074400000F3
:10B8F0004150503A494E464F3A416363656C20646B
:10B90000617461206F6B210D0A0000004150503AB4
:10B91000494E464F3A416363656C2064617461200F
:10B920004E47210D0A0000008307FF22DB0E9A40DC
:10B930008907090E994000280BDA0007000F083824
:10B94000830808489B001818C36993430B43C361DD
:10B950007047830804489B001B18186890430843ED
:10B960001860704700ED00E000E400E0F8B5FF204B
:10B97000013005F0DAFA002401250E4E0E4F0028A2
:10B9800007D00E4804600120B0607D70002002F0F6
:10B99000B3FFFF20053005F0C8FA002808D007489B
:10B9A000001D04600220B060BD70012002F0A4FF01
:10B9B000F8BD0000000300406C2B00200001004097
:10B9C00000B585B0142209496846FFF7B9FB01208C
:10B9D000694648720548064A103801F0B1F8002857
:10B9E00001D000F029FF05B000BD0000D4610200C5
:10B9F000A33F020010B5064801F022F801200549D6
:10BA00008002C86004A1032006F02AFD10BD0000DA
:10BA1000C4610200000500504150503A494E464F63
:10BA20003A50574D206F66660D0A000010B502208F
:10BA300002F004FC124989788143124818D001F0C1
:10BA400043F811A1032006F00BFD0E482038406892
:10BA500001F0EAF9002801D000F0EEFE14220021E6
:10BA6000084800F013FF002801D000F0E5FE10BDEB
:10BA700000F0E6FF012009498002C86010BD000007
:10BA8000E81F0020C46102004150503A494E464F21
:10BA90003A50574D206F6E0D0A000000000500500F
:10BAA00010B503220021024806F018F810BD00006E
:10BAB00000B0004010B5064900200860486088606A
:10BAC000C860034940390860486009F09DFE10BD18
:10BAD0004011014010B5064800F0A2F804460548A0
:10BAE00000F09EF82040044A0021117010BD0000B3
:10BAF000F93F000077360000E8210020F3B5224D21
:10BB000007272878012421497F03022681B00028D5
:10BB100006D0012818D002281CD00A2829D031E0EC
:10BB2000084600F07DF80446194800F079F8044012
:10BB3000384600F075F8204007460299019800F059
:10BB40003BF804463C4010E0084600F069F8044623
:10BB50000A2016E0384600F063F80746029901987B
:10BB600000F02AF804463C4001D02E700AE0012083
:10BB700007E0062000F054F80446142005F0F8F918
:10BB8000002028702046FEBDE8210020F93F00007B
:10BB90000336000010B5074C42206070062000F00C
:10BBA0003FF8142005F0E4F900F04AF80021217074
:10BBB00010BD0000E8210020F3B50126FF24F53474
:10BBC00081B00D46374600290BD10020FEBD134839
:10BBD000012340782A463843019909F0B1FF060055
:10BBE00004D12046641EA4B20028F0D1032D12D344
:10BBF00000240CE0019802210019009002F096FD4B
:10BC0000014600988078884205D1E41CE4B2AC4239
:10BC1000F0D33046FEBD01480770D6E7E82100208A
:10BC200008B50021009169464870000A0870034871
:10BC300001230222407809F083FF08BDE82100209B
:10BC40007CB51248FFF7ECFF1148FFF7E9FF044607
:10BC500006216846FFF7B0FF204005466846008889
:10BC60000CA140BA04046846C07800020443684648
:10BC7000007904432246032006F018FC0D48844254
:10BC800001D000207CBD28467CBD00007C36000031
:10BC900002E100003A494E464F3A5344503378206F
:10BCA0004465766963652049442069732025780DD1
:10BCB0000A0000000102010310B5034800780028C3
:10BCC00001D100F0CDF810BDE433002070B50E4670
:10BCD00018214843134914464518E86A18350028C6
:10BCE00004D001280FD0022805D113E0284600F027
:10BCF000EDF8A04201D2002411E022463146284648
:10BD000000F01FF90BE0284600F0E0F8A042F4D262
:10BD10000446F2E73146284600F0E3F804462046A0
:10BD200070BD0000E433002070B5FF210C480931DC
:10BD30000A4C00254550214609F00CFE00280CD184
:10BD4000A17E2046FF2903D001228A4005498A604E
:10BD5000457605710168201D884770BDE02B0020E5
:10BD6000003000400005005010B509F0BFFC10BDC8
:10BD700010B506484068002805D08047002801D04B
:10BD800000F05AFD10BD04F0BBFA10BDD421002014
:10BD900010B504F049FB002805D01F491D48486034
:10BDA000C8131E4988611E48018CC9B201290BD1F4
:10BDB000828C120708D1028D1206120F042A03D1B9
:10BDC000828D1206120F0AD0012921D1818C090718
:10BDD0001ED1018D0906090F0A2904D007E0114A76
:10BDE00001219160F5E7828D1206120F05D00D2911
:10BDF0000ED1808D0006000F0AD10B480168012981
:10BE000004D00A49016001680129FCD1C0214161C7
:10BE100010BD0000DFFF07C000050040006C0040BF
:10BE2000C00F00F00006004000EC064075930000D3
:10BE300010B504220249034804F0A2FA10BD000024
:10BE4000C82B00200080004010B50422024903489E
:10BE500004F096FA10BD0000D42B002000900040A2
:10BE600010B5124C02202061606111A0A06113483E
:10BE7000E0610120400220620020A06260620CA10B
:10BE8000A1642146E0621039E16410212165A065BA
:10BE90006065E0650AA1E01DFFF798F909A1204659
:10BEA000FFF794F92020A07110BD0000E4330020BA
:10BEB0005465726D696E616C00000000D431002021
:10BEC0005254540053454747455200000269C16827
:10BED0008A4203D88068401A801800E0501A401E39
:10BEE0007047F7B5064682B000200090F468174608
:10BEF0003069A04201D9051B02E0B168201A0D1A71
:10BF0000B0686D1E001BA84200D80546BD4200D394
:10BF10003D4670682A4600190399FFF711F9009809
:10BF20007F1B401900900398641940190390B06872
:10BF3000A04200D10024F460002FD9D1009805B0B0
:10BF4000F0BDF7B5C668174604468068851B606873
:10BF5000BD4206D980190199FFF7F2F8F019E060A7
:10BF6000FEBD2A4680190199FFF7EAF801987E1B69
:10BF7000411932466068FFF7E3F8E660FEBD000055
:10BF80000FB41CB50246002007AC00290BD0491E97
:10BF900001910092064B6A462146069800F034F85B
:10BFA000009A002111701CBC08BC04B018470000A6
:10BFB0007DC4010030B47446641E2578641CAB4215
:10BFC00000D21D46635D5B00E31830BC184702E0F9
:10BFD00008C8121F08C1002AFAD170477047002014
:10BFE00001E001C1121F002AFBD17047202804DAAA
:10BFF000012181400348014201D001207047002007
:10C0000070470000FC06FFBCFFB591B00F46054627
:10C01000002606E025280AD0149A139990476D1C33
:10C02000761C28780028F5D1304615B0F0BD0024E4
:10C0300000940121F34A029400E004436D1C2B7824
:10C040000846203B98401042F7D128782A280ED085
:10C05000022128780246303A092A15D8009A0A2384
:10C060005A43303A80180C436D1C0090F1E701CF21
:10C070000090002805DA0120400304430098404264
:10C080000090022004436D1C28782E2815D104202E
:10C09000044368786D1C2A280AD101CF6D1C0290D8
:10C0A0000BE002990A225143303940186D1C02906E
:10C0B0002878014630390929F3D928786C2810D01E
:10C0C00006DC4C281AD068280ED06A2817D104E064
:10C0D000742813D07A2812D110E0012040050443BF
:10C0E0000CE00121090501E0032109050C436978F1
:10C0F000814203D10120000524186D1C6D1C287895
:10C1000003906E281ED00CDC632831D004DC00289C
:10C110008AD0582811D1B2E064287BD069280CD18C
:10C1200078E073282DD004DC6F2870D0702804D1FB
:10C13000A7E075286CD078286BD0149A1399904793
:10C14000761C62E06002400F022807D003280AD064
:10C15000042838680AD006603F1D56E03868F11799
:10C1600006604160F8E738680680F5E70670F3E797
:10C170003878694608740020487404A803900120A8
:10C1800003E0386803900020C0433F1D61070FD5CE
:10C19000002101E00199491C029A0191914213DAB0
:10C1A0008142F7DB019A0399895C0029F2D10BE007
:10C1B000002101E00199491C01918142FADB019AB9
:10C1C0000399895C0029F5D101990098139A401AC6
:10C1D00000902146149B00F03BF901998019461804
:10C1E00007E0039803990078491C0391149A139966
:10C1F00090470198401E0190401CF2D12146149BAB
:10C20000139A009800F014F986196D1C09E741E0B3
:10C2100033E034E00A200021049005916002410FD0
:10C22000022905D001CFC2179446032905D007E0A3
:10C23000FF1DFF08FF0003CF06E000B2C2179446BF
:10C24000042902D140B2C1178C46002261469445B0
:10C2500006DA0A460021404291418C462D2102E037
:10C26000210504D52B216A461176012103E0E1075F
:10C2700001D02021F7E7019154E00A200BE01020C3
:10C2800009E01020049000210420044308200591B7
:10C29000029003E008200021059104906002410F04
:10C2A000022905D001CF00229446032906D006E0DA
:10C2B000FF1DFF08FF0003CF8C4603E080B2042976
:10C2C00000D1C0B20021019121072BD5039970291B
:10C2D00006D0049A1021059B4A401A4305D00EE06F
:10C2E00040216A461176012108E06146014306D0EB
:10C2F00030216A4611760399517602210191049A00
:10C300000821059B4A401A430CD16146014301D1E3
:10C31000610707D530216A46117601210191029902
:10C32000491E02910399582904D037A103910FA9FE
:10C330000F910DE039A1F9E76146059B049AFFF7DB
:10C340000BF8039B8C469B5C0F9A521E0F92137046
:10C3500061460143F0D10F9807A9081A20300390D5
:10C36000600704D5012000048443029801E0012005
:10C3700002900399884201DD401A00E00020411834
:10C380000290019809180098401A0090E00306D422
:10C390002146149B139A009800F05AF88619002041
:10C3A000049008E006A9085C149A13999047049831
:10C3B000401C761C049001998842F3DBE0030CD505
:10C3C0002146149B139A009800F042F8861904E065
:10C3D000149A302013999047761C0299481E0290B7
:10C3E0000029F5DC08E00F980F990078491C0F919F
:10C3F000149A13999047761C0399481E03900029BC
:10C40000F1DCFBE6092801003031323334353637B0
:10C410003839616263646566000000003031323390
:10C420003435363738394142434445460000000030
:10C43000F8B5044600251E461746880404D405E0D6
:10C4400039462020B0476D1C641EF9D52846F8BD3A
:10C45000FFB50446002581B01E46C80301D530272C
:10C4600000E02027880404D505E038460399B0474A
:10C470006D1C641EF9D5284605B0F0BD4A68002A37
:10C4800006D00A68531C0B6010704868401E486054
:10C49000704710B500280CD000290AD002780B781C
:10C4A0009A4206D10622401C491CFEF782FE002853
:10C4B00001D0002010BD012010BDF7B584B00646A4
:10C4C00000251788158020300290407B14460028F4
:10C4D00006D03A462146059801F000FA050009D138
:10C4E000B078002823D0059886462088001DB842E1
:10C4F00002D90C2007B0F0BD684679DF0028F9D1D9
:10C50000218803207246505420881921401C80B293
:10C510002080115420887146401C80B22080411830
:10C520006846008809F07CFB218840182080F0785C
:10C53000002817D0218803230A46F356C91C059802
:10C54000B942D6D80221815421880122491C89B2DE
:10C55000218042542188491C89B22180435420887B
:10C56000401C20807068002817D021880023C35603
:10C570000A46C91C0598B942BBD8022181542188BA
:10C580000A22491C89B2218042542188491C89B25F
:10C59000218043542088401C2080308900280AD004
:10C5A000009430460197062202210830059B09F0CD
:10C5B00091FB05009ED1308A00280AD000943046B5
:10C5C0000197072203211030059B09F083FB05002A
:10C5D00090D1308B00280AD0009430460197152264
:10C5E00014211830059B09F075FB050082D1306AD3
:10C5F000002806D03B462246059902F0E5F90500E1
:10C60000D8D1706A002806D03B462246059904F02E
:10C61000B5FB0500CED10298007B002807D03B4631
:10C6200022463046059908F085FB0500C2D13078D6
:10C63000002807D03B4622463046059904F0D2FB3D
:10C640000500B7D1284655E7174A0021535C002B57
:10C6500001D0012203E0491C0629F7D30022134927
:10C66000012806D002280BD0032810D0042818D1A6
:10C6700012E04878002803D0002A01D0012070473A
:10C680008878002803D0002A01D002207047C8789B
:10C69000002801D0032070470879002801D0042029
:10C6A00070470020704700006D20002024250020E6
:10C6B00010B501220221002001F0EAFD002801D07E
:10C6C000072812D107220221012001F0E1FD0028F4
:10C6D00001D0072809D100210122084601F0D8FD28
:10C6E000002801D0072800D1002010BD10B503207C
:10C6F00000F072FE002801D000F09EF810BDF0B5E9
:10C700000F468DB0002116466D460F24621A825CDA
:10C710006A54491C1029F9D328460D211030FEF720
:10C7200036FD0020221A395C5219401C117403286E
:10C73000F8D368464DDF0020211A491920310978C5
:10C740003154401C0328F7D30DB0F0BD10B50220C2
:10C7500001F03CFC10BD000070B50024064D06E061
:10C760006968E000085C012104F09EFE641C2878E2
:10C770008442F5D3002070BD58210020F8B515463D
:10C780000C460646052A01D20720F8BD04F064FFD6
:10C79000002803D104F032FF0028F6D11049002010
:10C7A0004E600C70C8608D6008610E4D0DE0E000B9
:10C7B00069688019009181786A46517000780A4A48
:10C7C000694604F0BDFE0028DFD12046641EE4B2B5
:10C7D0000028ECD1054A0021024800F08FFAF8BD8C
:10C7E00058210020C86202006DFA0100C1EB01006F
:10C7F00009A1012005F034FE05F07AFD05F07EFD6B
:10C800000028FBD100BEBFF34F8F0A490848C8601B
:10C81000BFF34F8F00BFFDE74150505F4552524F6D
:10C82000523A4552524F523A466174616C0D0A00B9
:10C830000400FA0500ED00E00EB500210290009121
:10C840006A4601910148FFF7D3FF0EBD0140000089
:10C8500070B5054640680B4E0179715C0124FF29D3
:10C860000DD0FE290CD005F057FA01466868064B3A
:10C87000007982009A58914202D1FF21315400245C
:10C88000204670BDC4210020A42D002070B50446B0
:10C8900000680D46008B642180B25043FEF736FCE1
:10C8A00082B22946204600F001F870BDF8B50D4669
:10C8B0000446174600680C212E4623224E43125C84
:10C8C0003118022A01D00820F8BD4968B94206D1C2
:10C8D000C16900293ED06068007988473AE0204667
:10C8E000FFF7B6FF002801D01120F8BD61681A4A91
:10C8F0000979FE20505423683A469E1977682046ED
:10C900002946002F02D09E69B7420AD3002A02D0DE
:10C910009B69934202D807F071FB0BE007F0A8FB7C
:10C9200008E0002A01D0964202D807F02BFC01E073
:10C9300007F0AEFC2068C06900280BD06168064A89
:10C94000097902204900D21C8918485502216068E3
:10C9500005F018FA0020F8BDC4210020FFB581B011
:10C9600006460768029D0C2045432320C05DEC1954
:10C97000002802D0082005B0F0BD002060600498B7
:10C98000A0722C4800680090284631680A30085C84
:10C99000002808D0002069464870039804F064FE1F
:10C9A000002816D101E00120F5E70398785101270E
:10C9B00003983D46854004991F48002901D08560B1
:10C9C00000E0C56000256019083004F003FF00286E
:10C9D00001D00420CFE76D1CEDB2022DF3D3207AF5
:10C9E00004F04CFF607A04F049FF206804F088FEF0
:10C9F00005467068029905F0B5F9237A01462A4682
:10CA0000184604F01BFF206804F07AFE0546022158
:10CA1000706805F0A7F90146607A2A4604F00EFF17
:10CA2000E7727168054A0979002049008A1802995D
:10CA30005054A0E7E462020000050050C721002026
:10CA4000F8B506460768406805F0AEF9022170683F
:10CA500005F08FF9002438192030007804F00EFF1B
:10CA6000641CE4B2022CF6D3002420460C21484377
:10CA7000C519E97A002912D031680A30085C00280B
:10CA80001AD02978012088400E498860286804F06F
:10CA900041FE287A04F0F2FE687A04F0EFFE641C8E
:10CAA000E4B2022CE1D370680021006806F076F948
:10CAB00001202037F870F8BD287801218140014815
:10CAC000C160E3E700050050F8B50768054600249B
:10CAD0006A68204612790C2148435300174AC61948
:10CAE00000219A181155F17A00290DD029680A30D1
:10CAF000085C002820D00021306804F033FE306844
:10CB000004F018FE00207060641C022CE0D36968F9
:10CB10000A4AFF200979D21E505468680121006832
:10CB200006F03CF9686805F004F9686805F048F912
:10CB300002202037F870F8BD0121DDE7C721002071
:10CB4000F7B588B00E00054609D02C682046203085
:10CB50000690C078002804D008200BB0F0BD0B2050
:10CB6000FBE704F0AFFF002803D0852801D00420A4
:10CB7000F3E704F071FD002805D104F03FFD002823
:10CB800001D00320E9E70698FF2101700698417063
:10CB900006988170002007460C2141430B19DF7273
:10CBA000FF221A725A720022D243401CC0B2625055
:10CBB0000228F1D32046223004F010FF002806D1CD
:10CBC0000027E019203004F005FE002803D0284695
:10CBD00007F09DF9CBE77F1CFFB2022FF1D30027AE
:10CBE000B8003258501C12D0F019037A3946284642
:10CBF000FFF7B4FE0490002804D0284607F087F918
:10CC00000498AAE7002239462846FFF74FFE7F1C0A
:10CC1000FFB2022FE4D300200922244B316901E046
:10CC20004908401C994201D99042F9D3204A5168E1
:10CC30009268029201916946087168681D4A0079FC
:10CC4000029001A9686805F0E1F8070004D02846C1
:10CC500007F05DF9384680E768680522006812022F
:10CC60008018316900690E01C640A661686805F048
:10CC700060F801270097042332460221686805F016
:10CC8000ADF80221686805F074F80A98E0616868F8
:10CC900009490079094A80000D506968FF20097927
:10CCA00050540698C770002057E70000FF0F00009F
:10CCB000E4620200A53F0200B02D0020C421002044
:10CCC00010B50D4C03E0401C00E0002020702078DF
:10CCD000617881420FD021786088E26848438018EB
:10CCE000A368CA00D1189A58898890472078A188EB
:10CCF0008842EADAE7E710BDB42100200A4B5B68FE
:10CD0000002B07D0002A07D0002805D00068037C3C
:10CD1000002B03D0082070470720704700230374BE
:10CD200041744261184670477C210020FFB50746D8
:10CD30009007002581B01E461446002825D1002CFE
:10CD400023D007F01BFD3046114EF0603046103006
:10CD500005704570029981704460756035700124DA
:10CD60000C4875702405046003211420FEF7DCFDD7
:10CD700009480460094CA76003211120FEF7D4FD87
:10CD80006068B060002005B0F0BD0720FBE7000040
:10CD90006C21002080E200E000E100E0001501408D
:10CDA000FEB51F4B5B68002B30D000282ED0052924
:10CDB00001D20720FEBD4369002B27D0437C012B05
:10CDC00026D00027029104460025694616460D70BC
:10CDD000684600F04BF801A808F066FF002819D05B
:10CDE000012101700F49446049688160029907611F
:10CDF0004661C16068460A49007948706846007813
:10CE000000F052F808F0B4FC2846FEBD0820FEBD34
:10CE10000F46D7E768460425007800F045F8F3E7A9
:10CE20007C2100200015014010B5084949680029FF
:10CE30000AD0002808D04169002905D000210174DA
:10CE4000022108F0BDFC10BD082010BD7C2100208F
:10CE500010B505484068002804D00321002008F0E0
:10CE6000AFFC10BD082010BD7C21002030B5EFF3D1
:10CE7000108172B6094A54680123002C04D0037053
:10CE8000002900D162B630BD5360054B1D68054CCA
:10CE9000254015601C6000220270F1E790210020FF
:10CEA00080E100E0FC06FFBC08494A68002A0CD07B
:10CEB00000280AD1EFF3108072B60A68044B1A609A
:10CEC00000224A60002800D162B6704790210020FD
:10CED00000E100E0800B01D0002070470120704786
:10CEE000F0B504468BB0008800F094FC05902088D3
:10CEF00003F074F90646A0680090657A68460574E8
:10CF00001E4F20880022397800F0D4FC05980028B4
:10CF100031D06079400710D50721304606F01CF962
:10CF2000002813D0082269460A7422884A828E8219
:10CF3000069004A801F040FF08E02088B97800F0CE
:10CF4000A7FC002802D0304603F032F903216846DE
:10CF500001712188C18060794007C10F6846017264
:10CF6000A0794007C10F6846417201788172C5728D
:10CF700001A801F021FF0BB0F0BD0000E02000206F
:10CF8000F0B50546007D002493B00E4600280DD074
:10CF9000012001466846103103940173717B41738F
:10CFA000817BF92001406846891C81731C2104A8FB
:10CFB000FEF7EDF86946087C0221084369460874CB
:10CFC0002A7DEF21002A02D01022104300E0084001
:10CFD0006A461074059407940894287D002800D0B0
:10CFE00003A8099001270A9410469771304A82805D
:10CFF0000094B27B0270F27B42708078F92210407C
:10D00000F722801C1040EF21084041084900684683
:10D010008170317B017214210BA8FEF7B8F801A8CA
:10D020000B9068460C908786C486078702A80F90ED
:10D03000A888AB1D0BAA04A9A2DF002835D1B068CF
:10D04000002830D0684687711A4981800094317C6D
:10D05000017000200146684641708078F92108403F
:10D06000F721801C0840EF2108404108490068462C
:10D07000817011A8B16800F006FF064614210BA8C4
:10D08000FEF785F801A80B9068460C908686C4864A
:10D09000068711A80F902A46E8880E320BA9A3DF55
:10D0A000002802D100E0EC81002013B0F0BD0000A8
:10D0B000192A00000829000010B500F017F80146F1
:10D0C000074800F00DFA002809D0082807D00549C4
:10D0D000884204D00449884201D0FFF7ADFB10BD5F
:10D0E00004240020043000000134000010B502F0D8
:10D0F000CFFDFEF716F90921C943FEF706F91049DD
:10D10000FEF7C6F80F49104C884201DB64200DE0A1
:10D110000E49884201DC012008E06168FEF7B8F89A
:10D12000A168FEF7ADF8FEF703F9C0B22178627886
:10D130008B1A834202DC8918814200D2207010BD14
:10D140000000614500803B452C20002000800945FF
:10D15000F0B50C4693B01F216A46118007260027C0
:10D160009180002809D0C17849070DD502A9FFF7A1
:10D17000A4F9002809D102AD01E000251780002C98
:10D180000ED0E078002802D0304613B0F0BD01AADE
:10D190000AA92046FFF791F90028F6D10AAA02E071
:10D1A00068460022878068468088C3B26846008847
:10D1B000C1B2284672DFE8E7FFB581B01E460A9F7C
:10D1C0001346040047D0002B45D0504D0120287055
:10D1D0000020E870202219464D48FDF7B1FF0020DD
:10D1E0006F61C0432E612881284607211830FDF762
:10D1F000CEFF47483C212030FDF7C9FF4448217845
:10D2000020300170A1788170E178C170617841703F
:10D210003F4A656923695563114613632031E3680A
:10D22000A268CB608A603A49E369A269CB638A63EA
:10D23000616A00291AD001463C31024648324162F7
:10D240008A60636A1B880B80616A436A8988998057
:10D250000021436A07E00E2005B0F0BD656AAD68A5
:10D260006D5C5554491C9D888D42F7D8A16A0029F0
:10D270001CD0274A943211460C398A608162A36A15
:10D280009B888B80A16A836A098819800021836A40
:10D2900004E0A56AAD686D5C5554491C9D888D42BB
:10D2A000F7D82C210A5D1A4940310A73216A0029F6
:10D2B00009D016490A310162226A52884A80216ADD
:10D2C000026A098811806168002900D04160104A13
:10D2D0000E490020B3322031C3001B1A85009B1871
:10D2E0000C68401C63510828F6DB094A0020EB3229
:10D2F000030185009B188C68401C63510828F7DBEC
:10D30000034802992030FFF723FFA5E754200020AF
:10D310002425002010B50188134C102915D011299F
:10D3200019D01B2910D1007A00280DD1E0780521F1
:10D33000401CFDF7EBFE084600F04EF8002803D035
:10D340006169002900D0884710BD817D0129FBD18A
:10D350008088208110BD00216171808821898842E8
:10D36000F8D10120E8E700005420002010B5022881
:10D3700001D003280ED1084C607800280AD0002084
:10D380006070E07800F028F8002803D06169002977
:10D3900000D0884710BD00005420002010B574DF75
:10D3A0000B4C012060710B490620C8700021094810
:10D3B000FFF7CEFE002809D1E07800F00DF8002834
:10D3C00003D06169002900D08847002010BD00000B
:10D3D0005420002044250020F1B53F4C88B020782F
:10D3E00000280AD00898E07006A802F043F80698D2
:10D3F0000125002804D065706AE0082009B0F0BD5E
:10D400003548002707211830FDF7C1FE334E7078EC
:10D41000002802D0E078012807D0B07800280CD08E
:10D42000E078012801D0022807D12169002903D022
:10D4300025710820884700E027710898FFF704F954
:10D44000E0702169002909D0032801D0042805D102
:10D450003078002802D06079002811D0A7711821F7
:10D460006846FDF794FE684607700772E1781A482F
:10D470000B001830FEF79EFD052E080F191D200029
:10D48000A57107208847EAE7A570019068460570F6
:10D490004782078213E00221A1700190684605705F
:10D4A000B18941823189018209E0684607F034FD83
:10D4B00002E0684607F05CFDE078002803D068468B
:10D4C00073DF00289AD12169002901D0A07888470C
:10D4D000002093E7A770F6E75420002024250020C1
:10D4E00073B586B004002FD06A46217C127F0020DD
:10D4F000914227D000250126684600950680458088
:10D5000007A80190E188608A6A46A4DF002819D143
:10D510006846007F2074608A0D49884216D0207DBD
:10D52000002813D00295039504950595E188684677
:10D530000181867241888181049001980590608AFA
:10D5400002A9A6DF08B070BD0E20FBE70820F9E7AE
:10D55000FFFF000038B50D4604001AD0002D18D08A
:10D56000286820600020C043608228792075FF2051
:10D57000207401216846817007490180221D694697
:10D580000120A0DF002803D129462046FFF7F8FC40
:10D5900038BD0E2038BD00000F18000038B5002837
:10D5A00024D0002922D00A88102A1AD0112A1AD091
:10D5B000502A1BD10446007D002817D0C8886289F4
:10D5C000891D904212D1488902280FD12068002875
:10D5D0000CD008460C3000F04FFC002807D000208B
:10D5E00006E0898801E00021C943418238BD01205D
:10D5F0006946087022682046904738BD70B50546D8
:10D6000001461C220E48FDF79BFD0E4C002626709D
:10D610002968002906D00822201DFDF791FD201D54
:10D620007ADF02E00748001D7BDF002807D1401E9B
:10D6300060806670044A00210448FFF75FFB70BDFC
:10D64000F0260020842000202D5C020030620200C1
:10D65000F8B5214C0146028800261E48E589102AAB
:10D6600013D01E4F112A1FD0122A2BD0502A1AD1A4
:10D67000881DC988A94216D14189022913D10C30CD
:10D6800000F0FAFB00280CD112E08A8804464280A0
:10D69000104808220C301831FDF752FD6670002D3D
:10D6A00001D101F0D9F9F8BD0021C943418046708C
:10D6B0003868FFF7B9FB0028F5D0A1690029F2D03E
:10D6C0008847F8BD034808220C300831FDF738FDC3
:10D6D000E7E7000084200020F026002030620200EE
:10D6E00010B503490A7D091D07F04DF910BD000072
:10D6F0000C270020034B10B50246D97D181D07F0FA
:10D700002FF910BD0C270020034B10B50246197EDF
:10D71000181D07F025F910BD0C270020F0B50446B0
:10D7200002883A488DB0014615310191102A09D07E
:10D73000112A50D01A2A4AD1217A090901294ED931
:10D7400001234DE0027D417D05468A43011D07A866
:10D7500007F019F9142207A902A8FDF7F1FC002629
:10D760002A483746143008900AE0710002A80818C9
:10D7700083881D220097281D089907F0B1F8761CB0
:10D780000298B042F1D8287DA688C043C0B207F005
:10D79000CBF81F49884217D04000401986800123EA
:10D7A0003246281D019907F011F901233246281D40
:10D7B000089907F00BF9A07D02280AD0002313492D
:10D7C000A2881631281D1DE00420FFF735F80DB0A2
:10D7D000F0BD0123F3E70023A288001D12E000231F
:10D7E0000A490546A2881731001D07F0EFF8207A94
:10D7F0000009022801D9012300E000230349A2887F
:10D800001831281D07F0E2F8E1E700000C2700209E
:10D81000FFFF000070B50B4E05460024317D2A46FF
:10D82000301D07F09DF8002809D0B17D2A46301D33
:10D8300007F096F8002801D0022400E001242046D9
:10D8400070BD00000C27002010B50024204608F011
:10D850001FFA002805D0641CE4B2182CF6D3182057
:10D8600010BD044801220168A24011430160204616
:10D8700010BD00000C27002010B5044608F008FA7F
:10D88000002802D001480019407E10BD0C2700205E
:10D8900070B505460C46084608F0FAF9002806D08F
:10D8A00003482A460119497E001D07F059F870BD4A
:10D8B0000C27002070B5064615460C46084608F0B1
:10D8C000E7F9002807D004482B4601193246001D0D
:10D8D000193107F07BF870BD0C2700207CB5054698
:10D8E00008880C460930904201D90C207CBD68465E
:10D8F00071DF0028FAD121880820685420881B2174
:10D90000401C80B220802954208800A9401C80B28D
:10D910002080401906220131FDF712FC208869465B
:10D92000801D80B220800978002900D0012129546F
:10D930002088401C208000207CBD000010B50878A5
:10D94000002809D0012805D0022801D005A104E053
:10D950000EA102E019A100E024A1032004F080FD43
:10D9600010BD00004150503A494E464F3A556E6B3B
:10D970006E6F776E206576656E742066726F6D20AF
:10D98000626C655F6466750D0A0000004150503A94
:10D99000494E464F3A496E6469636174696F6E20FF
:10D9A000666F7220424C455F44465520697320647F
:10D9B000697361626C65640D0A0000004150503A61
:10D9C000494E464F3A496E6469636174696F6E20CF
:10D9D000666F7220424C455F44465520697320654E
:10D9E0006E61626C65640D0A000000004150503A9F
:10D9F000494E464F3A4465766963652069732065F0
:10DA00006E746572696E6720626F6F746C6F6164AB
:10DA10006572206D6F6465210D0A000030B51B4BE7
:10DA20000D4604000FCB85B003936B4607C32BD084
:10DA3000002D29D01648214604600020C043A08054
:10DA40002868206100202075A073684663DF0028E5
:10DA500018D121786846817401210182A21C04A991
:10DA60000120A0DF00280DD12946204606F0A8FE9F
:10DA7000002807D1012003F029FB002802D103F080
:10DA800081FB002005B030BD0E20FBE7B462020030
:10DA90004421002038B5002820D000291ED00A8853
:10DAA000102A1CD0112A1DD0502A2ED0512A15D14F
:10DAB0008A8883889A4211D18A79891D022A0DD1D8
:10DAC0004A88C3889A4209D10A7A042A06D0062ACB
:10DAD00004D0052A02D0891C04F0A0FF38BD898833
:10DAE000818038BD828889888A42FAD10021C94361
:10DAF0008180007D0028F4D0BFF34F8F114910487A
:10DB0000C860BFF34F8F00BFFDE70446C888628935
:10DB1000891D9042E5D148890228E2D108460C309F
:10DB200000F0AAF9A0732269002ADAD0002801D0F7
:10DB3000012000E00220694608702046904738BD69
:10DB40000400FA0500ED00E07FB5044601216846B7
:10DB500081714A4981804A4A01A90120A0DF002839
:10DB60007ED1228825463C35002A09D044482B46E0
:10DB7000801C00904348616800F024FE00287BD19F
:10DB80002289002A0AD03E482B460A3000903D48A0
:10DB9000E168401F00F016FE00286DD1228A002A9D
:10DBA0000AD037482B461230009036486169001F72
:10DBB00000F008FE00285FD1228B002A0AD03048EE
:10DBC0002B461A3000902F48E169801E00F0FAFDC4
:10DBD000002851D1228C002A0AD029482B46223015
:10DBE00000902848616AC01E00F0ECFD002843D177
:10DBF000228D002A0AD022482B462A300090214844
:10DC0000E16A401E00F0DEFD002835D1216B0029BD
:10DC10000ED002A807F042FD19482B463230009082
:10DC20001848082202A9801F00F0CCFD002823D14B
:10DC3000606B00280BD012492B463A3100910279D3
:10DC400001681048401C00F0BDFD002814D1A16BF4
:10DC5000002910D002A806F033F90948423000E04C
:10DC60000AE0009007482B46072202A9273000F05F
:10DC7000A9FD002800D1002004B070BD0A180000E2
:10DC8000FA200020292A000010B50446FFF746FDBF
:10DC9000204605F071FF21460F4800F0AFF80E480E
:10DCA00021461838FFF77AFC2046FFF7D1FC2046C2
:10DCB00000F02CFA204604F0E9FC2046FFF72AFB8E
:10DCC000054821466030FFF7E5FE03482146503005
:10DCD00003F02AF910BD00001C24002017B5028CA7
:10DCE0000C4B85B09A4211D0002200920192029210
:10DCF000039204896B461C8001249C709A8007AAB9
:10DD000003910292008C6946A6DF0146084608B0DE
:10DD100010BD0000FFFF0000FFB5B1B004461E4675
:10DD200014212CA8FDF733FAFF206946487404AD8E
:10DD300001272A462046329902F0E8F8002106E041
:10DD4000339A525C2A54401C491C80B289B2B142B9
:10DD5000F6D3218C104A91421BD0C61E20A886857E
:10DD6000002100910191029103912289684602806D
:10DD7000877081802BA803950290208C6946A6DFCE
:10DD8000002804D120A9898DB14200D00C2035B0E3
:10DD9000F0BD0820FBE70000FFFF000038B5044697
:10DDA00008682060087960710020C0430D46208417
:10DDB00000212220015520464030818114218173A9
:10DDC0000121684681700C490180A21D694601202D
:10DDD000A0DF00280FD12946204602F03FF8002896
:10DDE00009D1A868002805D02946204600F08AF805
:10DDF000002800D1002038BD0D18000038B50246BB
:10DE00000888102816D0112816D0502817D1881D40
:10DE1000C9889389994212D14189144602290ED1A9
:10DE2000216800290BD00C3000F026F8002807D01C
:10DE3000002006E0888801E00020C043108438BD3F
:10DE400001206946087022682046904738BD028C40
:10DE50000B889A4203D189784030C91E817370477C
:10DE600020308170704770B504460D460846FDF7B6
:10DE700099F92080656070BD4178027808021043EE
:10DE8000C007C00F70470A780270497841700220BD
:10DE90007047000000B5174887B04069059000231F
:10DEA000D022154905A807F055FB002801D0FEF740
:10DEB000C3FC6A460121002007F034FB002801D092
:10DEC000FEF7BAFC684607F0DBFA002801D0FEF73F
:10DED000B3FC0A4807F0CAFA002801D0FEF7ACFCF0
:10DEE000074807F069FB002801D0FEF7A5FC07B042
:10DEF00000BD0000A46102003423002089DC010081
:10DF00008D560200F0B58FB00D4606461C216846BE
:10DF1000FDF73DF96846017802200143684601702B
:10DF200000240194039404940594012708A80694FE
:10DF300087701549684601840794E97B0177297C3D
:10DF40004177807FF9210840F721801C0840EF21AC
:10DF500008404108490068468177142109A8FDF767
:10DF600016F908A8099007A80A9068468785C4850D
:10DF70000786A8680D903346F088103309AA6946D1
:10DF8000A2DF0FB0F0BD0000382A00000149085C94
:10DF900070470000FE6102000549095C0548006900
:10DFA000C840C007C00F00D0012001214840704781
:10DFB000FE6102000005005010B503480021007802
:10DFC00003F0E3FF10BD0000FB61020010B5024941
:10DFD000085C04F02BF810BDF861020010B503498D
:10DFE000085C012104F02EF810BD0000F861020069
:10DFF00010B50349085C002104F024F810BD0000AE
:10E00000F86102000549095C05484068C840C0073E
:10E01000C00F00D00120012148407047F861020084
:10E020000005005070B5054D0024285D03F0C0FFC9
:10E03000641C032CF9D300F003F870BDF8610200F2
:10E0400010B500242046FFF7C9FF641C032CF9D348
:10E0500010BD10B500242046FFF7CAFF641C032C36
:10E06000F9D310BD10B50349085C002103F0EAFFA5
:10E0700010BD0000FB61020070B5054D0024285D55
:10E0800003F096FF641C032CF9D300F003F870BD75
:10E09000FB61020010B500242046FFF7E3FF641C7B
:10E0A000032CF9D310BD00000246002010B5C04378
:10E0B000054B00215C5C944201D1084610BD491C0F
:10E0C0000429F7D310BD0000FE61020070B50E4EAA
:10E0D00000250C46306000290DD0012000F0AEF87C
:10E0E000002801D0022005E0002000F0A7F8002859
:10E0F00000D00B2020707068002802D1FEF7D8FAFB
:10E100000546284670BD00004C20002010B51C4C70
:10E110000188606810290DD011290AD1401E606065
:10E1200007D1FEF7C5FA002803D02168002900D0E6
:10E13000884710BD00281ED100210122084600F0AA
:10E14000A7F8002801D0072811D1072202210120B9
:10E1500000F09EF8002801D0072808D101220221F2
:10E16000002000F095F8002805D0072803D021688A
:10E17000002900D088476068401C606010BD000026
:10E180004C20002010B5002000F0CAF9002801D072
:10E19000062807D1012000F0C3F9002801D0062885
:10E1A00000D1002010BD0000F3B581B00D460198EC
:10E1B000FFF77AFF0446042813D21D481D4F1E4E58
:10E1C000002D27D0012D0DD0022D0AD1600020187E
:10E1D000C0194578002D04D0F168002901D02846E7
:10E1E0008847FEBD610061187D5CCF1979780029F0
:10E1F0000BD071680A2251430F4A8068921CFEF7C7
:10E20000CFFD002801D10198B0700B48B9781030CB
:10E210000155DFE78068FEF707FE074861006118D7
:10E220001030C919005D8D78A842D3D0FEBD000022
:10E2300004620200F82400203820002010B5FFF707
:10E24000ABFE10BD014610B50F48042980890AD0E5
:10E25000072910D00A2905D1FF20F53002F06EFE03
:10E2600006F0B0FE10BD132176DF09E00028F9D0DA
:10E27000FEF7E2FA10BD05498842FBD1FFF78EF8A0
:10E280000828F3D110BD0000E81F0020FFFF0000A8
:10E2900070B50023042811D2440004190D4D012A41
:10E2A00002D101290DD0002246008019094E8019A3
:10E2B00000290CD0012906D0022906D007231846D0
:10E2C00070BD0E30C2B22A55F9E74270F7E782708E
:10E2D000F5E70000F824002010B5054A0146127A3F
:10E2E0000020D20702D0084600F058F810BD000008
:10E2F00038200020F8B50546234800248560C26018
:10E3000041600F46A80720D500260122114630465D
:10E31000FFF7BEFF761C0446042E02D2002CF4D078
:10E3200013E0002C11D17A0804211848FEF726FAD0
:10E3300004000AD1FEF710FA040006D11348144A6B
:10E340000021001FFEF7DAFC0446E80701D0FFF7C2
:10E3500069FE002C0ED10D480E4A00210C38FEF744
:10E36000CDFC040006D109480B4A01210838FEF70C
:10E37000C5FC0446680701D5FFF77EFE280701D5D6
:10E38000FFF71AFE2046F8BD382000201062020078
:10E39000D9E50100A10402004DC70100F8B55E4CAB
:10E3A000054660780026002803D000206070FFF743
:10E3B00047FE0120594F2B00FDF7FCFD18980D0D6D
:10E3C0002E3D4A5F6469706970AB78787878789888
:10E3D0009B9FA2ABAB960020FFF714FE00280AD04B
:10E3E0000020FFF7FBFD022D02D1E120C0000BE071
:10E3F0007D20400108E00020FFF7FAFD022D01D149
:10E40000C82001E0FF20913025706421FCF77EFEDA
:10E410006168414300222BE00020FFF7F3FD002854
:10E4200005D00020FFF7DAFD19204001ECE70020BD
:10E43000FFF7DEFDE4E70020FFF7E4FD002803D04E
:10E440000020FFF7CBFDD3E70020FFF7D1FDD9E790
:10E450000020FFF7D7FD002803D00020FFF7BEFD06
:10E4600002E00020FFF7C4FD257060684100002233
:10E470003868FEF795FC064636E00020FFF7A6FD5B
:10E48000257008E00020FFF7A9FD25702CE06070E2
:10E490000120FFF79BFD00226168E9E76070012021
:10E4A000FFF794FD606881004118E0E77868FEF7A7
:10E4B000BBFC06461120401B01D0002E03D00220D9
:10E4C000FFF78CFD10E001280BD9C82148436421D7
:10E4D000FCF71CFE6168002241437868FEF760FC8F
:10E4E00006460220FFF784FD3046F8BDFFF7A8FD81
:10E4F000CBE7FFF7A5FD002008E0FFF7A1FD04E052
:10E50000FFF79EFD0020FFF773FD0120FFF770FD70
:10E51000BBE7FFF79EFDB8E7382000200462020049
:10E5200070B50546FFF738FD002801D0022400E051
:10E5300003242846FFF72AFD214603F04DFD002065
:10E5400070BD002901DA002070470268511801608F
:10E5500001207047F8B50D46461C0020694608703A
:10E5600001246846FEF782FC134A1068286011688F
:10E5700050689368081A1D1A701C6D1CA84212D9A5
:10E58000002D0ED00D480E4C0088246880051940DF
:10E59000800DA402890020438918C8601068401CBF
:10E5A0001060002401E08819106068460078FEF7CA
:10E5B0007BFC2046F8BD0000BC2D0020F06202006C
:10E5C000D0210020034803C8814201D101207047B7
:10E5D00000207047BC2D002010B500780221FFF705
:10E5E000E3FD10BD70B50C4605460AA1032003F0FB
:10E5F00037FF0E4A0120D570507114710D4800226A
:10E600000B498068FEF7CCFB002801D0FEF714F917
:10E6100070BD00004150503A494E464F3A62757AFB
:10E620007A65725F6F6E0D0A00000000E81F00201F
:10E630009A190000A4610200F8B5254C0025E07885
:10E6400001264100E079814223D9401CE071207A03
:10E65000002812D0FDF7CEF92079002808D002203A
:10E66000FFF7C6FC1BA1032003F0FAFE2572F8BDDC
:10E670000120FFF7BDFC1DA1F5E7267220790028D7
:10E6800005D00220FFF7AAFCFDF7D0F9F8BD012064
:10E69000F8E71D4FB868FEF7C7FBFDF7ABF96571EA
:10E6A000E57126720120FFF799FC0220FFF796FC26
:10E6B0000121002289037868FEF772FB002801D04F
:10E6C000FEF7BAF811A1032003F0CAFEF8BD00005E
:10E6D000E81F00204150503A494E464F3A524544B7
:10E6E000204C4544206F6E210D0A00004150503AE5
:10E6F000494E464F3A475245454E204C4544206FBF
:10E700006E210D0A00000000A46102004150503A41
:10E71000494E464F3A68656172745F726174655F15
:10E7200074696D6572206F6E2E0D0A0010B5024679
:10E73000FF20064B03E014784440185D521C0C4641
:10E74000491EC9B2002CF6D110BD000014630200AE
:10E750000022D243830004490428CA5002D3081877
:10E760002030027770470000802B0020F0B5002594
:10E77000ED43002A02D00023042601E004230826EA
:10E780000B4C04E09F00E7597F1C04D05B1CB34294
:10E79000F8D32846F0BD26185DB2203635709E00AD
:10E7A000A151002AF5D1E11820310877F1E70000E6
:10E7B000802B0020024909182020085670470000CD
:10E7C000802B0020FFB58FB01E4615460F0002D1EA
:10E7D0000020FEF731F8002D02D10020FEF72CF8C2
:10E7E0001C216846FCF7D3FC6846017802200143EF
:10E7F0006846017000240194039404940594012157
:10E8000008A80694817068460F99018407943178AE
:10E81000017771784177807FF9210840F721801CCA
:10E820000840EF21084041084900684681771421DB
:10E8300009A8FCF7ACFC08A8099007A80A9068464C
:10E840008585C485058604480D9709AA6946008810
:10E85000189BA2DF13B0F0BDFA2000200848016920
:10E86000C908C907C90F02D00221816070474268F8
:10E8700002210B46934383601140C1607047000042
:10E8800000050050002807D00449814204D80449FB
:10E89000814201D90120704700207047FC210020EF
:10E8A0001C220020044A0168914201D0083101E095
:10E8B0000149383901607047FC2C002070B50D4DBE
:10E8C00004460A462846AC4208D1FF2401342146BA
:10E8D000104605F00FF9A0420AD070BDFF2CFCD8FD
:10E8E0002146104605F0F8F8002801D0204670BDFA
:10E8F000284670BDFFFF000070B5084C050009D028
:10E9000010342168002907D008682060496828462B
:10E910008847F6E70834F4E770BD00006C2B002050
:10E92000F8B52348416800293ED00E6821494C685B
:10E9300087688078E11B0D022D0AED1C002814D198
:10E9400001201D4A000450601B4A403A50601B4998
:10E95000400008601A4908601A49012008602F2009
:10E9600002F038FB124901208870B54200D23546CA
:10E97000E81900020F4B000A403318600D4A516835
:10E98000001B091B0902090A0002000AC91C814276
:10E9900009D9506818602F2002F01CFB012007499C
:10E9A000400480390860F8BD05F0E8FEF8BD0000BD
:10E9B0006C210020001501404013014080E200E07E
:10E9C00000E100E000100140F8B50646108814464A
:10E9D0008446801D0D46984201D90C20F8BD32882E
:10E9E0000720062AFAD31927FF01184BBA4201D98A
:10E9F0009A42F3D171880629F0D3B94201D99942DC
:10EA0000ECD19A4203D0994201D08A42E6D805213E
:10EA10006046295420881221401C80B2208029544D
:10EA20002088401C80B220804119308807F0F8F817
:10EA30002188401880B220804119708807F0F0F8D2
:10EA40002188401820800020F8BD0000FFFF000052
:10EA500010B5FDF7F1FE10BDF8B5164801F0D6FC73
:10EA6000144D00260C3D144C002807D06169002984
:10EA70001CD001206A461070684616E028780028ED
:10EA800005D06169002911D0684606700DE06878EC
:10EA900000280DD0A168094800220068FEF780F91F
:10EAA000002803D0A169002900D088472E70F8BD46
:10EAB0006168F0E790200020F0260020306202001C
:10EAC000F0B50026F643002A04D01268D243002392
:10EAD000094F0DE03246FAE7C45C6240082455084D
:10EAE000D20700D032463A406A40641EF7D15B1C20
:10EAF0008B42F1D3D043F0BD2083B8ED10B50B4964
:10EB000009480B4A096800BF00BF00BF00BF00BF33
:10EB100000BF00BF00BF914200D000BF0138F2D15A
:10EB2000FEF7CEF810BD0000A0860100F8210020FD
:10EB30000024F4007FB50C46002802D0012004B068
:10EB400070BD20790026002806D01B4D01281CD05E
:10EB5000022828D00F20F2E702960396E068019081
:10EB6000694601A805F02AFD00280AD0029881888C
:10EB7000E1800088208169460988029805F098FDA7
:10EB800000E00A2002212171D9E70C4B6A460021DE
:10EB9000A01D05F0D1FC002807D0084908398E6077
:10EBA000CE600A28CBD12846C9E70448818801985D
:10EBB00005F07EFDF5E700001D1D0000A0210020EE
:10EBC000F8B500260124154D23E06968F0004718C8
:10EBD000387821462A698140114218D08A432A6137
:10EBE00002F002FD3A782146EB6891401940034655
:10EBF000934099420BD17978012901D0012100E09D
:10EC000000217B684140002B01D010469847761CBC
:10EC1000F6B228788642D8D3F8BD000058210020EB
:10EC2000044A002901D1002313705268002A00D041
:10EC300010477047EC21002010B50E4900230A78D8
:10EC40004C78A24212D0521CD2B20A70022A00D1D1
:10EC50000B700A78074B920018339A580260886844
:10EC600010180002000A8860012010BD0360002017
:10EC700010BD00006C2100203EB5094D38CD009339
:10EC8000029501946B46588099809A71054900223B
:10EC90000978FEF70FFE684600F08EF83EBD0000D2
:10ECA000A4620200E020002010B5047800222300B6
:10ECB000FDF780F9070605070D1D262C06000A70D2
:10ECC00010BD01220A7002898A81828814E0022222
:10ECD0000A7002898A818288CA81C2688A60007C3F
:10ECE000062802D00020087410BD0120FBE7032293
:10ECF0000A70C2888A810289CA81C068886010BD92
:10ED000004230B70C0888881CA8110BD052008705B
:10ED100010BD000070B5064D06460024A00029581D
:10ED2000002901D030468847641C082CF6D370BDFA
:10ED30002C2C00200EB5002910D011290ED0002255
:10ED4000009202926A46508001910D2907D08629CF
:10ED500007D009201070104600F03CF80EBD0B20C3
:10ED6000F8E70A20F6E700000149096808470000B3
:10ED7000A020002070B5054D06460024A0002958AB
:10ED800030468847641C022CF8D370BD4C620200E8
:10ED9000F8B507460024064E064D04E0A0003158A1
:10EDA00038468847641CE8788442F7DBF8BD0000E9
:10EDB000202B0020D020002070B5054D06460024F1
:10EDC000A000295830468847641C022CF8D370BD37
:10EDD0006C6202000149096808470000B062020045
:10EDE000704700007FB50446406800280BD0002023
:10EDF000039020780026414D0300FDF7DBF8066DF7
:10EE00000606304E7B6D0120F2E7A08900F0DAF9AA
:10EE1000002804D1E08905F06DFC00285CD0A089B1
:10EE200000F0CAF9014668464180E08905F05CFCC3
:10EE300001466846017120780128606807D00028E3
:10EE400009D00420694608706068039020E000281B
:10EE5000F8D00320F6E70120F4E708463AE0A0895D
:10EE600000F0B0F9002804D1E08905F043FC002847
:10EE700032D0A08900F0A0F969464880E08905F009
:10EE800033FC694608716068002804D005200870CA
:10EE9000A0680290E1E70220F9E7A08900F092F96A
:10EEA000002819D0E089002816D1A08900F084F943
:10EEB00069464880E08905F017FCFF206946087123
:10EEC000606800280FD0072008706E70AE7004F0E4
:10EED0001FFB684604F0D8F96878002802D06E70ED
:10EEE00004F016FB7FBD062168460170408804F0DF
:10EEF0009DFBEAE7082069460870AEE7BC200020C9
:10EF000000B5104987B00978890702D4022007B0FC
:10EF100000BD0D49884201D10420F8E70522694669
:10EF20000A7001220A71C88000221146684603F067
:10EF3000F5FD002803D005F0DBFA0020E7E7082004
:10EF4000E5E7000098210020FFFF000000B50F4812
:10EF500087B00078800702D4022007B000BD0620E9
:10EF60006946087000221146684603F0D7FD002864
:10EF700009D007480178002901D00121017305F06B
:10EF8000B7FA0020E9E70820E7E700009821002011
:10EF90002C2D002010B58CB014216846FCF7F7F832
:10EFA0001D480078810703D56846FFF7B3FE30E0BF
:10EFB000C0072ED1012000F02BF900F0FBF901244D
:10EFC0006846047503F03CFE0300FCF7F3FF0C07F2
:10EFD0001107111B190A191B1317131B0B200CB057
:10EFE00010BD022000F014F9012000F0F7F8DBE773
:10EFF000002000E003206946087603E00220FAE7DB
:10F00000684604760022114605A803F087FD05F046
:10F010006FFA0020E3E700009821002038B50400D3
:10F0200014D0694605F0CAFA002813D06846008853
:10F030000101094809188889002809D0A27A002A04
:10F0400006D0401E88810020A07238BD052038BD42
:10F05000062038BD0A2038BD0C2D00201FB501A99F
:10F06000684605F069FA04B010BD07B513460A46B4
:10F070006946002005F060FA0EBD07B513460A4642
:10F080000021684605F058FA0EBD002805D0002979
:10F0900003D000680860002070470520704700001A
:10F0A00038B50D46040017D0002D15D0694605F07F
:10F0B00085FA002812D06846008861680201084875
:10F0C00012189089401C9081296060680C3068603B
:10F0D0000120A072002038BD052038BD0A2038BDAF
:10F0E0000C2D002010B5002804D00323002206F0C8
:10F0F0001FFF10BD052010BD10B50223002206F031
:10F1000017FF10BD10B5002A03D0022306F010FF30
:10F1100010BD052010BD000010B5064A5178082921
:10F1200006D08B00044C491CE0505170002010BDEB
:10F130000C2010BD982100202C2C002038B504464E
:10F140000A480D460078800701D4022038BD002C03
:10F150000AD06946284606F0FBFF0028F6D169462A
:10F1600009882180658038BD052038BD98210020A0
:10F1700010B504460E480078800701D4022010BD67
:10F18000002C10D0218802290FD80A4A08018018C3
:10F1900042896088121A032A07D406F0CFFF0020A4
:10F1A0002080608010BD052010BD042010BD00002F
:10F1B000982100200C2D002003218903401A80B2E1
:10F1C0007047000003218903401A0349884201D88F
:10F1D0000120704700207047FE3F000002490A7876
:10F1E00082430A70704700009821002010B5044641
:10F1F0000078182802D1FEF727FB207010BD10B54B
:10F2000004460078182802D1FEF71EFB207010BDBE
:10F2100002490A7802430A707047000098210020D2
:10F2200070B5064600200546862906D0112902D071
:10F23000002903D070BD012500E001200E4C002AFA
:10F2400002460FD061793046FEF734FB2A46217919
:10F250003046FEF72FFB002261783046FEF72AFB8E
:10F26000002204E061783046FEF724FB2A4621782C
:10F270003046FEF71FFB70BDE420002010B50029CA
:10F280000DD1074807A1826D032003F00FF9104C40
:10F2900013212068808876DF21680120087510BD61
:10F2A000B83500203A494E464F3A4F627461696E54
:10F2B00065642073657474696E67732C20656E7461
:10F2C0006572206466752069732025640A00000059
:10F2D00044210020F8B506461C481F460078154614
:10F2E0000C46C0070AD03046FFF7CCFA002807D0FA
:10F2F000002C07D0A00507D00620F8BD0120F8BDDE
:10F300000220F8BD0320F8BD3068A04204D8A8024E
:10F3100071680019884201D90520F8BD002D10D070
:10F32000684605F037F800280DD000980221C0C0CB
:10F330000170A101090C8180058105F0E7F800202A
:10F34000F8BD0420F8BD0720F8BD0000B021002062
:10F3500010B5084605F03AF810BD0000F8B50D4CA0
:10F36000074620680225400840000E46206000291C
:10F370000DD009A1032003F073F820682843206012
:10F380007A68002A02D0314638469047F8BDA84333
:10F39000F5E70000F42100203A494E464F3A476510
:10F3A0006E65726174696E67206661696C757265FD
:10F3B0000D0A0000F0B52648264C001B030926481C
:10F3C00019464069421C03D10120000740698002B0
:10F3D000224A12789646D2070CD00020F0BD1D4C70
:10F3E00015012C192568002D03D06468002C00D06D
:10F3F000491E521C9A42F2D3002420E0E2B20025BA
:10F4000094462A460FE0134E1701BE193768002FA5
:10F4100002D07768002F05D1767BAE4202D93546FF
:10F42000D6B2B446521C9A42EDD362461501094A3F
:10F43000AA185060157BAD02401B641C10608C4202
:10F44000DCD306487146012211430170C5E7000074
:10F450001C220020FC21002000100010B021002000
:10F460000348406E042801D00020704701207047F7
:10F470003C2D0020002804D00349496E0160002083
:10F4800070470320704700003C2D0020F8B5074668
:10F490001E481E46007815460C46C0070ED038465A
:10F4A000FFF7F0F900280BD0002D0BD0002C09D06D
:10F4B00028462043800707D00620F8BD0120F8BD6C
:10F4C0000220F8BD0320F8BD3868A04204D8B1007E
:10F4D00078680919884201D20520F8BD002E11D0A4
:10F4E000684604F057FF00280ED000980699076080
:10F4F000416001210172C5600461868205F006F851
:10F500000020F8BD0420F8BD0720F8BDB021002080
:10F5100070B5174B0446186E182148431549C0189A
:10F520000A78950715D5022C02D0032C1CD102E0D5
:10F5300003F0CAFA18E04A78521CD2B24A70032A81
:10F5400012D900224A70082105F012FB04F00CFFCA
:10F550000AE0500708D5FB2002400A70586E0028C8
:10F5600002D0022002430A7004F08CFF70BD00003C
:10F570003C2D0020B02100200EB5112069460872F4
:10F58000092210A102A87CDF002801D0FDF754F960
:10F590000F4878DF002801D0FDF74EF900200090D9
:10F5A0001022694601900A803C224A808880FF2010
:10F5B0009130C88068467ADF002801D0FDF73CF919
:10F5C0000EBD0000477265656E4C756E67000000E9
:10F5D0004103000010B50248FEF739FC10BD0000E1
:10F5E0001C24002010B50449044801F09BFC0028AD
:10F5F00001D0FDF721F910BDD5F501006C240020E4
:10F6000070B5002801D0012070BD184C0025207B6A
:10F61000002801D0257301E000F0A0F82078030055
:10F62000FCF7C8FC082205080B0E22111C2200F072
:10F630001FF870BD00F082F870BD00F065F870BD75
:10F6400000F03CF870BD062020706088074900017A
:10F6500020394018406803F0D3FA70BD07202070AD
:10F66000656003F0DBFA70BD0F2070BD2C2D00200B
:10F6700070B5104900208A1C0D460346203D0C1829
:10F68000A67A002E08D0A37204016419A689002E60
:10F6900002D1A47B012C08D0401C80B20228EED3FA
:10F6A0000B704B8004484B6070BD108000F046F832
:10F6B00070BD00002C2D00201D1D000010B50F4C4A
:10F6C00060880101204620380818818900290BD064
:10F6D000052020700A480221818001680023012250
:10F6E0000848FFF7F7FD10BD4168002301220548D7
:10F6F000FFF7F0FD0421217010BD00002C2D00202B
:10F70000A8210020FC21002038B50A4908480B68D0
:10F71000898842688900591853880324047000209E
:10F72000DB1C00909BB20448FFF7B0FE38BD000020
:10F730002C2D0020A8210020FC21002010B5064916
:10F740004888091D04F08AFF002802D0FFF7DCFF7B
:10F7500010BDFFF7B3FF10BD2C2D0020F0B51D48E4
:10F760001D4907780246012502268C88203A3B0075
:10F77000FCF720FC080517171A212C2C16170189F5
:10F78000491C01810021418001730B01D35C002BD6
:10F7900008D000234418491C89B2A3720229F4D36B
:10F7A0000570F0BD0123F5E742685288D21CA2180B
:10F7B0008A800670F0BD45880B682D01AA1855682F
:10F7C0000D60536014818E80062100E007210170D6
:10F7D000F0BD00002C2D0020A8210020F0B504462B
:10F7E0000088384D8DB050281DD0522802D05428A2
:10F7F00026D103E0A08801F099F821E006206946AF
:10F800000870A08800F0EAFC69464880A2888A80D7
:10F8100000F054F9A0880022E978FEF74BF868461A
:10F82000FFF7A2FA0CE0207B012809D1A07A012879
:10F8300006D120892449884202D1A08801F0B2F87B
:10F84000A878FEF719F8002819D008A8FDF748FF96
:10F85000142208A903A8FBF773FC002403AE0BE0F5
:10F8600060008719B888A978FEF712F8002802D03E
:10F87000B88801F05BF8641C0398A042F0D868785F
:10F88000FDF7FAFF002819D008A8FDF729FF142278
:10F8900008A903A8FBF754FC002403AE0BE06000AA
:10F8A0008719B8886978FDF7F3FF002802D0B88877
:10F8B00001F078F8641C0398A042F0D805F0A0F994
:10F8C0000DB0F0BD98200020022900003EB504468E
:10F8D0004088694648802078002814D001281DD02F
:10F8E00002280FD1207900280CD0608800F0AAFBF4
:10F8F0000E49884206D00E490122C978FDF7DAFF89
:10F9000005F07EF93EBD002008700846FFF72CFA8E
:10F91000608800F097FB01F009F83EBD01216846C0
:10F920000170A1888180FFF71FFA3EBDFFFF000034
:10F930009820002010B50446007801280DD1608879
:10F9400000F0F4FF608800F07FF9002805D003493B
:10F9500060880122C978FDF7ADFF10BD9820002016
:10F9600010B5104C00202070FDF76EFF6070FDF7A1
:10F970006BFFA070FDF768FFE070FDF765FF207179
:10F98000617818290BD0A178182908D0E1781829B6
:10F9900005D0182803D001202070002010BD0320BE
:10F9A00010BD000098200020F0B585B000F09EF852
:10F9B0006846FDF795FE00246D460C4F0EE0600092
:10F9C0004619B08800F00AFCB84205D10849B08851
:10F9D0000122C978FDF76EFF641CA4B20098A04212
:10F9E000EDD805F00DF905B0F0BD0000FFFF0000F7
:10F9F0009820002010B50178072902D1408800F036
:10FA0000D1FF10BD10B504460A4841782046FDF7E5
:10FA10003FFF00280CD0084800210C224A4312184E
:10FA20005288A24201D1C8B210BD491C0829F4D3A2
:10FA3000FF2010BDB02000204027002070B5094DE8
:10FA4000094E00240C206043401940887178FDF76E
:10FA50001FFF002804D0641C082CF3D3FF2070BDC6
:10FA6000E0B270BD40270020B0200020F8B5074666
:10FA7000104E0125BD403068FDF7D6F900280DD1A4
:10FA80000D4C2069284207D1384601F0ADFD002811
:10FA9000E06804D0284303E0A8432061F8BDA843F0
:10FAA000E0602069002228432061A1683068FDF7EA
:10FAB00077F9F8BDC8620200582100201CB5054A3C
:10FAC0009168D268019200910022694603F0A4FA7D
:10FAD0001CBD00003862020003480021C943818038
:10FAE0000121017000207047A420002010B50448B7
:10FAF00003F0C6F90349888005F0AEF810BD000098
:10FB0000FFFF0000A4200020F1B582B0029800F0B1
:10FB100065FB00241649032501272646884209D0A3
:10FB20006A46082103F04EFA002803D1019886881E
:10FB30000568841D2B46324621460298A9DF042819
:10FB400004D0082804D00B2807D002E0112000E0E0
:10FB50000020002F00D10B20FEBD0027A80701D5F3
:10FB60000125E7E73443F6D0002426460325E1E7E4
:10FB7000FFFF0000F1B582B0029800F02FFB0746AE
:10FB80001B48874201D11B48FEBD01252A466D1C3A
:10FB90000026ADB26B460821384603F043FA040054
:10FBA00002D0072C21D021E0019903230B600A1D0C
:10FBB000891D0298AADF040004D00C2C08D0052C63
:10FBC00008D008E00821384603F0C6FA04460DE0E4
:10FBD000012600E000240821384603F0A7FA002897
:10FBE00000D00324002ED1D100E00C242046FEBD1D
:10FBF000FFFF0000023000001FB504460078012816
:10FC000015D12079012812D1608802AA012103F0C0
:10FC1000D9F900280BD10221684601706188418022
:10FC200003980178684601710549096888470448C6
:10FC3000044908388088884201D005F00DF81FBDBE
:10FC4000AC200020FFFF00001CB500F0C7FA6A4698
:10FC5000012103F0B7F9002801D000201CBD019854
:10FC600000781CBDF8B5074E074C084D07463246D4
:10FC700061883846A7DFA84203D16088401C6080B5
:10FC8000F5E7F8BDFFFF0000A420002003300000CE
:10FC900030B5084801210160074A00231360074C72
:10FCA00021601568002DFCD082686160036090B20D
:10FCB00030BD000000750040007100400070004041
:10FCC00010B50A4901220A60437802789B001A4362
:10FCD0008378C4785B012402007923431A4300042B
:10FCE00002434A600020086010BD0000007500401B
:10FCF0008188054A914204D00088002801D0012063
:10FD00007047002070470000FFFF000070B58CB006
:10FD1000202104A8FBF73BFA032104A8FBF7EEFE21
:10FD2000002811D00220FEF759F968461026865F98
:10FD3000C821B0B240BA00B22D4CC84208DA2DA199
:10FD4000032002F08DFB05E00220FEF751F9ECE7FD
:10FD50000120A070062269460220FBF7FDFB002867
:10FD600005D128A1032002F07BFBFBF7C5FB6079DE
:10FD7000002803D106216846FBF73AFDE5692B48C8
:10FD80006D1CE561006805210902401840687D216D
:10FD9000C90048432821FBF7B9F96946A061887179
:10FDA000020ACA71020C0A72000E48728D72280A89
:10FDB000C872EE2008736069B1B2401C60610D2307
:10FDC0006A461B48FDF7A8FF04000ED0082C0CD093
:10FDD0001848844209D01848844206D017A103204D
:10FDE00002F03EFB2046FCF727FD0CB070BD000082
:10FDF000E81F00204150503A494E464F3A4F4B20A1
:10FE00000D0A00004150503A494E464F3A424D418A
:10FE100032353320526561642064617461207469F5
:10FE20006D656F7574210D0A00000000CC61020041
:10FE30001C24002004300000013400004150503ADE
:10FE4000494E464F3A424C452044617461207365E7
:10FE50006E64206572726F722E0D0A00F0B5002478
:10FE600006460D46601C0107B7B0090F08A81031FF
:10FE70000C940174297B4174817CF9273940891CD9
:10FE800081741C2105A8FBF782F96846017D1020CA
:10FE90000143684601750CA806940A9008940994D9
:10FEA00001220B9408A882761749684601870D94B1
:10FEB000697B08A80175A97B4175817DF7203940D0
:10FEC000891C0140EF200140114308A881751421CD
:10FED0006846FBF75CF90EA800900DA801900FAAE8
:10FEE0000021304600F012F80146684601819B214E
:10FEF000448181810FA804903346F08808336A4614
:10FF000005A9A2DF37B0F0BD372A000010B5517047
:10FF1000090A9170008C054C02230321A04202D0F3
:10FF20000120107000E01370084610BDFFFF0000B4
:10FF30003EB5044600780D46022815D10322611C07
:10FF40006846FBF7FDF80322211D02A8FBF7F8F82D
:10FF500001AA02A92846FCF7D2FB032201A96846A0
:10FF6000FBF727F9002801D000203EBD01203EBD4F
:10FF700010B50C46FFF746FDFF280AD00C21484378
:10FF80000549072241182046091DFBF7D9F8002032
:10FF900010BD052010BD00004027002070B501886D
:10FFA00090B0102949D1011D2C2202A8FBF7C8F8F6
:10FFB0006846234E007B344602AD03282AD003F066
:10FFC000D3F96846007B00280ED001280CD0022807
:10FFD00020D118E00E99281D1131FCF75AFA00289B
:10FFE00002D06846048815E00DAA6946072003F090
:10FFF00091F90028EED10DE00E99281D491CFFF75C
:020000040002F8
:1000000097FF0028EDD10DAA6946072003F082F979
:100010000028F1D168460089291D00F033FFB44261
:100020000BD068460089214600F086F868460189B1
:10003000418001210170FEF79DFE10B070BD0000EF
:10004000FFFF0000084A00210C234B43D35A834290
:1000500004D10C204143881840887047491C082966
:10006000F2D302487047000040270020FFFF000045
:1000700010B50E4C182060700D4A0E4900200C235C
:1000800043435B18401C5A800828F8D3FDF7DCFB7B
:100090006070182804D00548C01C71DF002801D00A
:1000A000032010BD01202070002010BDB0200020D2
:1000B000FFFF00004027002070B504460D46401C9D
:1000C00000F0DCF9002810D01022691C601CFBF73E
:1000D00070F800280AD00026294620461131113038
:1000E000FCF7D7F901463046084370BD0126F3E717
:1000F0000188002903D142189278002A01D00120FA
:100100007047491C0829F6D30020704710B50C46EB
:100110000346FFF7EDFF00280BD01888218888429E
:1001200006D10822A11C981CFBF743F8002801D037
:10013000002010BD012010BD10B503F0D3FA10BD92
:1001400010B50446007888B0002826D12079072809
:1001500023D1608801AA072102F034FF00281CD1B6
:1001600003F002F91BE0694660880988884216D0CE
:1001700004990298FFF7A0FF002810D06088FFF7CD
:1001800061FF01466846C1820021017561880183D3
:100190000188418305A8FEF7EDFD08B010BD03AA54
:1001A0006946072003F0B6F80028DCD1F5E7000027
:1001B00070B50446FFF746FF0546204602F007FFEC
:1001C000054904468D4204D0002C02D1284603F094
:1001D00089FA204670BD0000FFFF000010B5FFF750
:1001E00011FCFF2804D00C2148430249085A10BDD5
:1001F000014810BD40270020FFFF00003EB5044627
:1002000003F0B2F810E0019920464631FFF77EFF77
:10021000002806D1019920462A31FFF777FF0028F0
:1002200002D0684600893EBD6A4602A9072003F055
:1002300071F80028E7D101483EBD0000FFFF000033
:10024000F8B50F46002804D00120FEF7C7FF0120B3
:10025000F8BD397900290AD00026254D01290BD097
:10026000244C022920681FD003293BD125E002F04D
:10027000D5FC0121397133E000200101695C0229BC
:100280000BD0401C80B20228F7D30220FEF7C0FF3B
:100290000120FEF7A3FF1848F8BD0401601940686B
:1002A00002F0AEFC2E551BE001460023012213484C
:1002B000FFF710F80221A18011E002F0A1FC0C4927
:1002C0002368203149880A01094951184D68256081
:1002D0004B60A3880B810221A18005498E543E7199
:1002E0000028D9D00120FEF779FF0E20F8BD0000CC
:1002F0000C2D0020A82100201D1D0000FC21002045
:10030000F8B51E4C2078002836D0E068002600287A
:100310000CD00025607800282ED1684652DF0528D1
:1003200006D0002806D0FCF787FA0BE00125F1E79C
:10033000012607E0009801F081F82169002901D029
:1003400000988847002D13D16078002814D1608868
:1003500069460880A06861DF052804D0002804D021
:10036000FCF76AFA04E0012502E0E168A06888472A
:10037000002ECFD0002DE5D0F8BD0000D421002004
:10038000F7B50025164604462F4616E0A8000121C1
:100390000904A940FF3041302258002A0BD0032223
:1003A0001202A21852680A4205D02750019A0199F8
:1003B0001268496890476D1CEDB2B542E6D3FEBDA8
:1003C0000121814003484068014201D0012070476B
:1003D00000207047482100200121814003484078D7
:1003E000014201D0012070470020704748210020C1
:1003F000014610B501208840FCF76CFD10BD0121BD
:100400008140880700D001207047000041880548DE
:100410000288914204D34088814201D8012070476C
:1004200000207047882000201048018CC9B20129A3
:1004300017D1818C090714D1018D09060A0F03D148
:10044000828D1206120F0ED0090F012903D1828D61
:100450001206120F07D0032903D1808D0006000F6A
:1004600001D000207047012070470000C00F00F04D
:1004700001218140880400D0012070470021425CA6
:10048000002A01D001207047491C1029F7D3002011
:100490007047800701D0002070470120704700009E
:1004A00010B50448017AC90702D00078FDF776FF3D
:1004B00010BD000038200020FFB5244D81B0287AFF
:1004C0001F460E46084304D0039A002E04D0002194
:1004D00004E0052005B0F0BD1C491031019804F07E
:1004E000C7FE0446014600220198FEF799FE002F40
:1004F00003D021460198FEF71DFC112C0FD006DC1D
:10050000002C0AD0082C08D00D2C05D105E0862C33
:1005100011D00F48C44200D003242046DAE7324607
:10052000E9780198FDF7C6F9A978039A0198FDF7D3
:10053000C1F90024F1E73246E9780198FDF7BAF9EC
:10054000A978039A0198FDF7B5F9E6E7E4200020C1
:10055000FECFFFFFFEB517460C00064604D02078FC
:10056000C00704D0012003E000217EDFFEBD022091
:10057000694608713046FFF731FE17490546884243
:1005800008D001A800902B463A462146304600F09C
:1005900025F806E020782146C007304603D000F059
:1005A00081F804460BE07EDF044600200090002C1A
:1005B00008D0002201232946304604F0A5FA002C79
:1005C00002D006E00122F5E768460179304604F0E2
:1005D000C1FA2046FEBD0000FFFF0000FFB585B058
:1005E00000252E4601AA07210E9F089802F0EAFC7A
:1005F000040008D1029D4420405D1835C607F60F5F
:1006000001D0029D34350798204312D1002D10D01F
:10061000002E05D128461230FFF76AFD002808D0C9
:1006200029462A461231059885DF04460020387095
:1006300023E0002C01D0052C1FD106980078C007BC
:100640000DD003AB01220721089802F0EBFC040057
:100650000AD10721089802F0E3FD040004D10699AD
:1006600005987EDF040008D00721089802F05EFD9F
:10067000002802D0052800D00324002000903878FC
:10068000002801D0012300E00023002C07D0002225
:100690000899059804F038FA204609B0F0BD012207
:1006A000F6E70000FEB50F46064602F087FC054659
:1006B0001848854220D001AB01220721284602F0CC
:1006C000B1FC04000AD10721284602F0A9FD04006C
:1006D00004D1394630467EDF040008D00721284681
:1006E00002F024FD002802D0052800D003240120B8
:1006F0000090002C0BD002E0032400200090002288
:1007000001232946304604F0FFF92046FEBD0122B0
:10071000F6E70000FFFF0000F7B5114D0F46164643
:1007200029780098FDF7B4F8002812D00098FFF758
:1007300055FD04460B4884420BD069780098FDF7BC
:10074000A7F8002806D033463A462146009802F022
:10075000EFFAFEBD324639460098FEF78DFAFEBD2F
:10076000E0200020FFFF0000F1B586B00698FDF7FD
:1007700083F8002821D06846FCF7B2FF00246E46BB
:1007800018E060008519A8880699FDF781F800280F
:100790000FD00B4FA888B978FDF77AF80590A88894
:1007A000F978FDF775F80146A8880123059AFFF747
:1007B00083FE641C0098A042E3D807B0F0BD00009F
:1007C000E4200020F0B5284C2146103948688B6899
:1007D000227886469C46CF78667836E018235343C5
:1007E0006168521CC918A378D2B2934200D100228A
:1007F0000B78022B02D0032B27D123E003464D6850
:10080000194603E0A94204D00B46C96900291CD04F
:10081000F8E7002919D08B4208D1C069002805D11A
:10082000124F0125BD600025AC4601270D68C9693E
:10083000D961002909D00B685B190B6005E00174D0
:10084000C06900E000210028F9D19642C6D10649CE
:10085000624610398A604860CF70704501D001202F
:10086000F0BD0020F0BD00007C2100200010014000
:10087000F8B52C4E044670680025009041E0002C2D
:1008800002D02046E46920E0264818231030017881
:1008900042684B43491CC9B2D2180170837899420F
:1008A00000D105701178506801292CD1017C0029F4
:1008B00029D191684160D16881601169C160516935
:1008C0008161F178002900D045604368B268164F15
:1008D000991A0902090AB94202D28268891806E007
:1008E000D11A09028268090A8A4202D9511A0160A2
:1008F00000E005604560012185600174C56104F078
:100900003FFF002CBBD1074810300178407881426E
:10091000BAD171680098814201D00120F8BD002051
:10092000F8BD00006C210020FFFF7F00FEB50446EB
:100930001948002684422DD02046FFF7E5F805002F
:1009400012D00B2D14D0112D10D01448C5421BD03D
:100950000921684601702046FFF740FC01466846C1
:100960004180848002950DE0022102E001260BE027
:100970000321684601702046FFF730FC01466846B7
:1009800041808480FEF7F0F90548324681782046A0
:10099000FCF790FFFEBD0000FFFF0000FECFFFFF51
:1009A00098200020FEB504460026FFF7E3F8054630
:1009B000112818D004DC002D13D00C2D05D114E023
:1009C000862D25D01348C5421BD0092168460170E9
:1009D0002046FFF703FC014668464180848002956B
:1009E0000DE0012102E001260BE0072168460170BD
:1009F00084802046FFF7F2FB014668464180FEF7FF
:100A0000B3F90548324641782046FCF753FFFEBD56
:100A10000821EBE7FECFFFFF98200020F8B5054640
:100A200000780C46002620420FD10020694608704D
:100A30006846FCF71BFA2878204202D12043287030
:100A4000012668460078FCF72FFA3046F8BD000012
:100A50001CB5084A6B4650700220002218709A702C
:100A6000D9701A71002900D1062058701846FFF776
:100A700027F91CBD2C20002098B0002001F0C0FDFB
:100A8000002801D0FBF7D8FE04F0FEFE6D4A6E4947
:100A90000B20FDF72FFC002801D0FBF7CDFE01A9AC
:100AA0000020FDF713FB002801D0FBF7C5FE6846C8
:100AB000007902280DD0002069460870FAF780FFFF
:100AC00000213220FFF7C4FF04F0ACFF002802D061
